:020000040800F2
:100000000000082475C70008EB300008ED30000838
:10001000EF300008F1300008F33000080000000065
:10002000000000000000000000000000F5300008A3
:10003000F730000800000000F9300008FB3000082D
:10004000C5C70008C5C70008C5C70008C5C7000860
:10005000C5C70008C5C70008C5C70008C5C7000850
:10006000C5C70008C5C70008C5C700080531000896
:1000700015310008253100083531000845310008E8
:10008000553100086531000875310008C5C7000802
:10009000C5C70008C5C70008C5C70008C5C7000810
:1000A000C5C700088D310008C5C70008C5C70008CE
:1000B000C5C70008C5C70008C5C70008C5C70008F0
:1000C000C5C700089D310008AD310008C5C700084C
:1000D000C5C70008C5C70008C5C70008C5C70008D0
:1000E000C5C70008C5C7000800000000C5C7000854
:1000F000C5C70008C5C70008C5C70008C5C70008B0
:10010000C5C70008C5C70008C5C70008C5C700089F
:10011000BD310008C5C70008C5C70008C5C700082D
:10012000C5C70008C5C70008C5C70008C5C700087F
:10013000C5C70008C5C70008C5C70008C5C700086F
:1001400000000000000000000000000000000000AF
:10015000C5C70008C5C70008C5C70008C5C700084F
:10016000C5C70008C5C70008C5C70008C5C700083F
:10017000C5C70008C5C70008C5C7000800000000C3
:10018000C5C70008C5C70008C5C70008C5C700081F
:10019000C5C70008C5C70008C5C70008C5C700080F
:1001A000C5C70008C5C70008C5C70008C5C70008FF
:1001B000C5C70008C5C70008C5C70008C5C70008EF
:1001C000C5C70008C5C70008C5C70008C5C70008DF
:1001D000C5C70008C5C70008C5C70008C5C70008CF
:1001E000C5C70008C5C70008C5C70008C5C70008BF
:1001F000C5C70008C5C70008C5C70008C5C70008AF
:10020000C5C70008C5C70008C5C70008C5C700089E
:10021000C5C70008C5C70008C5C70008C5C700088E
:10022000C5C70008C5C70008C5C700080000000012
:10023000C5C70008C5C7000800000000C5C7000802
:10024000C5C70008C5C70008C5C70008C5C700085E
:10025000C5C70008C5C70008C5C70008C5C700084E
:10026000C5C70008C5C70008C5C70008C5C700083E
:10027000C5C70008C5C70008C5C7000800000000C2
:10028000C5C70008C5C70008C5C7000800000000B2
:0802900000000000C5C70008D2
:1002A00010B5054C237833B9044B13B10448AFF3B0
:1002B00000800123237010BDE00100240000000035
:1002C000A8F4000808B5034B1BB103490348AFF37A
:1002D000008008BD00000000E4010024A8F400082C
:1002E000034613F8012B002AFBD1181A0138704776
:1002F00001F0FF01102A2BDB10F0070F08D010F8D7
:10030000013B013A8B422DD010F0070F42B3F6D1DA
:10031000F0B441EA012141EA014122F007047FF0F3
:1003200000070023F0E80256083C85EA010586EA4A
:10033000010685FA47F5A3FA87F586FA47F6A5FA86
:1003400087F68EB9EED1F0BC01F0FF0102F0070292
:1003500032B110F8013B013A83EA010313B1F8D13D
:100360000020704701387047002D06BF354603381E
:10037000073815F0010F07D1013015F4807F02BF57
:10038000013015F4C03F0130F0BC0138704700BFA8
:1003900053B94AB9002908BF00281CBF4FF0FF31EC
:1003A0004FF0FF3000F074B9ADF1080C6DE904CEE8
:1003B00000F006F8DDF804E0DDE9022304B0704740
:1003C0002DE9F047089D04468E46002B4DD18A4208
:1003D000944669D9B2FA82F252B101FA02F3C2F13B
:1003E000200120FA01F10CFA02FC41EA030E9440CC
:1003F0004FEA1C48210CBEFBF8F61FFA8CF708FBED
:1004000016E341EA034306FB07F199420AD91CEBC4
:10041000030306F1FF3080F01F81994240F21C81F6
:10042000023E63445B1AA4B2B3FBF8F008FB10333E
:1004300044EA034400FB07F7A7420AD91CEB040473
:1004400000F1FF3380F00A81A74240F20781644443
:10045000023840EA0640E41B00261DB1D4400023C8
:10046000C5E900433146BDE8F0878B4209D9002D2C
:1004700000F0EF800026C5E9000130463146BDE8B6
:10048000F087B3FA83F6002E4AD18B4202D3824220
:1004900000F2F980841A61EB030301209E46002DCF
:1004A000E0D0C5E9004EDDE702B9FFDEB2FA82F224
:1004B000002A40F09280A1EB0C014FEA1C471FFA82
:1004C0008CFE0126200CB1FBF7F307FB131140EA69
:1004D00001410EFB03F0884208D91CEB010103F136
:1004E000FF3802D2884200F2CB804346091AA4B2F8
:1004F000B1FBF7F007FB101144EA01440EFB00FECC
:10050000A64508D91CEB040400F1FF3102D2A64530
:1005100000F2BB800846A4EB0E0440EA03409CE7CF
:10052000C6F12007B34022FA07FC4CEA030C20FA7C
:1005300007F401FA06F31C43F9404FEA1C4900FA9C
:1005400006F3B1FBF9F8200C1FFA8CFE09FB181119
:1005500040EA014108FB0EF0884202FA06F20BD98C
:100560001CEB010108F1FF3A80F08880884240F2DC
:100570008580A8F102086144091AA4B2B1FBF9F020
:1005800009FB101144EA014100FB0EFE8E4508D91B
:100590001CEB010100F1FF346CD28E456AD90238A0
:1005A000614440EA0840A0FB0294A1EB0E01A14285
:1005B000C846A64656D353D05DB1B3EB080261EBF3
:1005C0000E0101FA07F722FA06F3F1401F43C5E9CD
:1005D000007100263146BDE8F087C2F12003D84003
:1005E0000CFA02FC21FA03F3914001434FEA1C4745
:1005F0001FFA8CFEB3FBF7F007FB10360B0C43EA37
:10060000064300FB0EF69E4204FA02F408D91CEBE6
:10061000030300F1FF382FD29E422DD902386344E4
:100620009B1B89B2B3FBF7F607FB163341EA034184
:1006300006FB0EF38B4208D91CEB010106F1FF38D3
:1006400016D28B4214D9023E6144C91A46EA0046CA
:1006500038E72E46284605E70646E3E61846F8E65C
:100660004B45A9D2B9EB020864EB0C0E0138A3E7A5
:100670004646EAE7204694E74046D1E7D0467BE786
:10068000023B614432E7304609E76444023842E7FE
:10069000704700BF10B59CB0044600210391602252
:1006A00004A80CF0BBF80623019300940123282230
:1006B0003D210F4807F064FE08B91CB010BD0DF1D4
:1006C0000C0C0C4C0FCCACE80F000FCCACE80F00BE
:1006D00023682CF8023B1B0C8CF8003003A8FFF7B2
:1006E000FFFD82B203A9044809F0B4FBE5E700BFAF
:1006F000BC060024C0F40008B009002410B59CB06A
:10070000044600210391602204A80CF087F804231A
:1007100001930094012320223C210D4807F07CFD29
:1007200008B91CB010BD0DF10C0C0A4C0FCCACE894
:100730000F000FCCACE80F002368CCF8003003A802
:10074000FFF7CEFD82B203A9034809F083FBE8E777
:10075000BC060024E4F40008B009002402681A4B27
:100760009A4200D0704710B588B008F0A7FDB8B91C
:10077000164B59781A7842EA012215490A80D9782D
:100780009A7842EA012213490A805A791B7943EA8E
:100790000223114A1380114B01221A7008B010BDB8
:1007A0000DF1040C0E4C0FCCACE80F0094E80700E0
:1007B0008CE8070001A8FFF793FD82B201A9094860
:1007C00009F048FBEAE700BF00580040040200249B
:1007D000FC010024FE010024000200240202002487
:1007E00008F50008B009002408B50268034B9A42D6
:1007F00000D008BD0248FFF74DFFFAE7005800405F
:100800000402002472B6FEE700B59DB04C22002120
:1008100009A80CF003F82022002101A80BF0FEFF2C
:10082000022007F0C1F9002300932B4BDA6A22F073
:100830000102DA62DB6A03F001030093274A93693D
:1008400023F4404343F480439361936903F44043AA
:100850000093009B214B9B6913F4005FFAD0204A60
:10086000936A23F0030343F002039362292309935D
:100870004FF480330A9301220E920F9202231293B7
:1008800013931492092215921693179318930C221E
:1008900019921A934FF440631B9309A803F028FBA5
:1008A000A8B93F23019303230293002303930493E6
:1008B0004023059306934FF4806207920893012129
:1008C00001A803F033FF20B91DB05DF804FBFFF76A
:1008D00099FFFFF797FF00BF000400580048025837
:1008E0000044025800B5B1B0BC22002101A80BF0B1
:1008F00095FF4FF4002301930123029309230393EF
:1009000004230493022305930693C0230793202313
:1009100008934FF44063099301A804F0A3F910B9B8
:1009200031B05DF804FBFFF76DFF000000B59FB02C
:10093000644B5B6913F4003F13D1BFF34F8FBFF3D8
:100940006F8F604B0022C3F85022BFF34F8FBFF36D
:100950006F8F5A6942F400325A61BFF34F8FBFF371
:100960006F8F07F0DDF9FFF74FFFFFF7BBFF00F0D8
:10097000BBF800F0CFFC00F0FDF900F04FFA00F0FA
:1009800093FA00F01BFC00F093FD00F06DFE00F008
:100990002DFF00F057FF00F081FF01F0C1F801F0DA
:1009A000F5F801F027F901F059F901F08BF901F0A0
:1009B000BDF901F00FFC01F04DFC01F077FC01F0F6
:1009C000A1FC01F0CBFC01F035FE02F0AFFA02F021
:1009D00011FB01F06BFE01F0BDFE01F0EDFE01F038
:1009E00013FF01F039FF01F06BFF01F0B7FF02F0D8
:1009F00041FB01F0CBFF02F007F802F01DF802F016
:100A000073FBFC238DF8743040238DF87530002182
:100A10008DF876100C238DF877300491602205A8AC
:100A20000BF0FCFE1DA8FFF769FE04A8FFF758FCB9
:100A3000642382B204A924480AF021F8234B1B78CE
:100A4000002BF2D0224BB3F9003007EE103AB8EE8B
:100A5000C77ADFED207AC7EE275A1F4BB3F9003073
:100A600006EE903AF8EEE66A86EEA77A1B4BB3F9EB
:100A7000003006EE903AF8EEE66A86EEA76AB7EE28
:100A8000C66A8DED026BB7EEC77A8DED007BB7EECF
:100A9000E57A53EC172B124904A80CF00BFB04A8C1
:100AA000FFF71EFC82B204A9074809F0D3F94FF4FE
:100AB000FA7007F075F9054B00221A700948FFF724
:100AC000E9FDB2E700ED00E0B009002402020024D5
:100AD000FC01002400C00E45FE0100240002002499
:100AE00024F50008040200242DE9F04F91B0002401
:100AF0000B940C940D940E940F94934BD3F8E02028
:100B000042F48072C3F8E020D3F8E02002F480724F
:100B10000092009AD3F8E02042F48062C3F8E0200B
:100B2000D3F8E02002F480620192019AD3F8E02029
:100B300042F04002C3F8E020D3F8E02002F0400287
:100B40000292029AD3F8E02042F00802C3F8E020B3
:100B5000D3F8E02002F008020392039AD3F8E020D1
:100B600042F00102C3F8E020D3F8E02002F00102D5
:100B70000492049AD3F8E02042F01002C3F8E02077
:100B8000D3F8E02002F010020592059AD3F8E02095
:100B900042F00202C3F8E020D3F8E02002F00202A3
:100BA0000692069AD3F8E02042F40072C3F8E020DF
:100BB000D3F8E02002F400720792079AD3F8E020FD
:100BC00042F08002C3F8E020D3F8E02002F0800277
:100BD0000892089AD3F8E02042F00402C3F8E0201B
:100BE000D3F8E02002F004020992099AD3F8E02039
:100BF00042F02002C3F8E020D3F8E03003F02003F5
:100C00000A930A9B514E22464FF29051304605F00E
:100C100019FCDFF850B12246FC21584605F012FCC1
:100C2000DFF844A1224640F60801504605F00AFCD0
:100C3000DFF8389122464FF40041484605F002FCA7
:100C4000DFF82C8122460421404605F0FBFB404F93
:100C5000224647F2FF01384605F0F4FB2246082100
:100C60003C4805F0EFFB4FF290530B9301250C9598
:100C70000D940E940BA9304605F0E6FAFC230B9375
:100C80000C950D940E940BA9584605F0DDFA4FF41F
:100C9000004BCDF82CB0304B0C930D940BA938467B
:100CA00005F0D2FA40F608030B930C950D940E94C0
:100CB0000BA9504605F0C8FACDF82CB00C950D9450
:100CC0000E940BA9484605F0BFFA04230B930C952C
:100CD0000D940E940BA9404605F0B6FA47F2FF03B7
:100CE0000B930C950D940E940BA9384605F0ACFAB5
:100CF0004FF4E0530B9302230C930D940E940A23AC
:100D00000F930BA9154805F09FFA4FF400530B936E
:100D10000C940D950BA9124805F096FA4FF4006358
:100D20000B930D4B0C930D940BA9304605F08CFAE8
:100D300008230B930C950D940E940BA9054805F010
:100D400083FA11B0BDE8F08F004402580020025829
:100D50000024025800180258000011110000025827
:100D60000008025800280258000C0258001C0258C3
:100D70000010025800B58BB0002307930893099325
:100D800000930193029303930493059306932048E1
:100D9000204A026043608360C360042202610375DD
:100DA00043750122826103774FF4A46141624FF4DD
:100DB00080618162C2620363436380F8383002F06D
:100DC000ADFEE0B90023079307A9114802F0DEFF4A
:100DD000C0B9114B0093062301930023029340F204
:100DE000FF7203920422049205938DF8193069462C
:100DF000074802F06DFB40B90BB05DF804FBFFF74C
:100E000001FDDFE7FFF7FEFCE3E7FFF7FBFCF3E79D
:100E100010020024002002400200300400B589B016
:100E2000002301930293039304930593069307937E
:100E300019481A4A026043608360C3600422026159
:100E40000375437501228261037743628362C36243
:100E50000363436380F8383002F060FEA8B9104B9A
:100E6000019306230293002303930E4A0492042263
:100E7000059206938DF81D300DEB0201064802F035
:100E800027FB28B909B05DF804FBFFF7BBFCE6E7D8
:100E9000FFF7B8FCF6E700BF74020024002102400F
:100EA000020030040000FF4700B589B00023019321
:100EB0000293039304930593069307931B481C4ADC
:100EC000026043608360C36004220261037543755E
:100ED0000122826103774FF4986242624FF480628C
:100EE0008262C3620363436380F8383002F016FE07
:100EF000A8B9104B019306230293002303930E4AD3
:100F000004920422059206938DF81D300DEB020128
:100F1000064802F0DDFA28B909B05DF804FBFFF7D6
:100F200071FCE6E7FFF76EFCF6E700BFD80200248D
:100F300000600258020030040000FF4730B591B055
:100F400000230B930C930D930E930F930368914A18
:100F5000934208D0904A93427ED0904A934200F048
:100F6000D78011B030BD04468D4A13680133136039
:100F7000012B60D08B4BD3F8E02042F00402C3F881
:100F8000E020D3F8E02002F004020192019AD3F8A5
:100F9000E02042F00102C3F8E020D3F8E02002F0A4
:100FA00001020292029AD3F8E02042F00202C3F852
:100FB000E020D3F8E03003F002030393039B0C23FB
:100FC0000B9303250C950BA9774805F03DF90B957C
:100FD0000C9500250D950BA9744805F035F94FF0D7
:100FE0008071084606F0F6FE4FF00071084606F0E4
:100FF000F1FE6F486F4B0360092343608560C56055
:101000004FF4806303614FF4805343614FF4804396
:101010008361C5610562456205F02EFCC8B9644B69
:10102000E3649C6300221146122006F0F9FD1220B1
:1010300006F02CFE95E75B4BD3F8D82042F0200257
:10104000C3F8D820D3F8D83003F020030093009BD6
:1010500090E7FFF7D7FBE2E7514A136801331360CB
:10106000012B47D04F4BD3F8E02042F00402C3F8E5
:10107000E020D3F8E02002F004020592059AD3F8AC
:10108000E02042F00102C3F8E020D3F8E02002F0B3
:1010900001020692069AD3F8E02042F00202C3F859
:1010A000E020D3F8E03003F002030793079B0C2302
:1010B0000B9303240C940BA93B4805F0C5F80B9443
:1010C0000C9400240D940BA9384805F0BDF84FF09E
:1010D0008071084606F07EFE4FF00071084606F06B
:1010E00079FE22462146122006F09AFD122006F0D3
:1010F000CDFD36E72B4BD3F8D82042F02002C3F8C1
:10110000D820D3F8D83003F020030493049BA9E738
:10111000244BD3F8E02042F08072C3F8E020D3F8EB
:10112000E02002F080720892089AD3F8E02042F0A2
:101130002002C3F8E020D3F8E02002F02002099258
:10114000099AD3F8E02042F00402C3F8E020D3F873
:10115000E03003F004030A930A9B4FF480630B937F
:1011600003240C940BA9144805F06EF804230B9388
:101170000C9400230D930BA90B4805F065F84FF074
:101180008061084606F026FE4FF00061084606F032
:1011900021FEE6E6002002400021024000600258E5
:1011A0000C020024004402580008025800040258AF
:1011B0003C030024700002400014025800B58BB0BC
:1011C0002422002101A80BF029FB1248124B0360D6
:1011D00008F0D0F8A8B900220192062302930392E6
:1011E00002230493059201A90A4808F0D5F858B9DA
:1011F000102201A9074808F0CFF840B90BB05DF8FC
:1012000004FBFFF7FFFAE6E7FFF7FCFAF0E7FFF76A
:10121000F9FAF3E7B40300240074004010B588B075
:101220000023039304930593069307930268324BBC
:101230009A4201D008B010BD0446304BD3F8E820E4
:1012400042F00052C3F8E820D3F8E82002F0005240
:101250000192019AD3F8E02042F00102C3F8E020A5
:10126000D3F8E03003F001030293029B3023039391
:101270000323049303A9224804F0E6FF2148224BEC
:10128000036043234360402383600023C3604FF423
:10129000806202614FF4805242614FF48042826169
:1012A000C3610362436205F0E7FAF0B9154BA3602E
:1012B0009C631648164B03604423436040238360BD
:1012C0000023C3604FF4806202614FF48052426198
:1012D0004FF480428261C3610362436205F0CCFA3D
:1012E00030B90A4BE3609C63A4E7FFF78BFADDE7B4
:1012F000FFF788FAF5E700BF007400400044025889
:1013000000000258C80300244000024040040024AA
:101310005800024000B583B0234BD3F8D82042F0E8
:101320000102C3F8D820D3F8D83003F001030193A9
:10133000019B002211460B2006F072FC0B2006F0E8
:10134000A5FC002211460C2006F06AFC0C2006F0D9
:101350009DFC002211460D2006F062FC0D2006F0D7
:1013600095FC002211460E2006F05AFC0E2006F0D5
:101370008DFC002211460F2006F052FC0F2006F0D3
:1013800085FC00221146102006F04AFC102006F0D1
:101390007DFC00221146112006F042FC112006F0CF
:1013A00075FC03B05DF804FB00440258F0B5B7B01B
:1013B000002331933293339334933593344B1B682A
:1013C0000BB137B0F0BD324B01221A60BC220021B4
:1013D00002A80BF023FA4FF08073029302A803F0E7
:1013E00041FC002850D12B4BD3F8D42042F480523A
:1013F000C3F8D420D3F8D43003F480530193019B75
:1014000048F237133193022732970026339603258B
:1014100034950C24359431A91F4804F015FF4CF283
:1014200003733193329733963495359431A91B4821
:1014300004F00AFF4FF63F03319332973396349509
:10144000359431A9164804F0FFFE012331933297F9
:1014500033963495359431A9124804F0F5FE319451
:10146000329733963495359431A90F4804F0ECFE49
:101470004FF680733193329733963495359431A972
:101480000A4804F0E1FE9CE7FFF7BCF9ABE700BFB8
:10149000B80400240044025800180258000C0258F6
:1014A0000014025800080258001C0258001002588C
:1014B00000B589B00023019302930393049305932D
:1014C000069307931048114A026043608360082224
:1014D000C260102202614021416180218161C361AB
:1014E0000362436283620192029203920492059224
:1014F0000692079201A908F08BF810B909B05DF8BF
:1015000004FBFFF77FF9F9E7BC04002440410052D7
:1015100008B5FFF74BFF08BD10B5B6B00446002173
:1015200031913291339134913591BC2202A80BF064
:1015300075F922681A4B9A4201D036B010BD4FF0AF
:101540008053029302A803F08DFB28BB154BD3F800
:10155000F02042F00052C3F8F020D3F8F02002F05F
:1015600000520092009AD3F8E02042F00802C3F83B
:10157000E020D3F8E03003F008030193019B10232F
:10158000319302233293002233923492359331A95E
:10159000054804F059FED0E7FFF734F9D6E700BF5D
:1015A0000074014000440258000C0258F0B589B0A4
:1015B0000023039304930593069307930268254B36
:1015C0009A4201D009B0F0BD234BD3F8E02042F09D
:1015D0001002C3F8E020D3F8E02002F010020092DD
:1015E000009AD3F8E02042F00402C3F8E020D3F8D8
:1015F000E02002F004020192019AD3F8E02042F0C8
:101600004002C3F8E020D3F8E03003F04003029337
:10161000029B02240394049406940325079503A9CE
:101620000E4804F011FEC027039704940026059687
:1016300006950123079303A9094804F005FE0397C3
:10164000049405960695079403A9064804F0FCFD4A
:10165000B8E700BF0074014000440258001002586F
:10166000000802580018025810B5A6B000242294B1
:101670002394249425941E941F94209421945422FE
:10168000214609A80BF0CAF82022214601A80BF038
:10169000C5F85448544B03604460846008F096F9E0
:1016A00000287ED100214F4808F0E0FA00287BD1C5
:1016B00000232293022223922493259322AA042119
:1016C000484808F00BFA002871D1464C0122042149
:1016D000204608F0F1FA4FF6FD731E9300211F918A
:1016E00005232093082321931EAA204608F0DCF945
:1016F00000285FD1002109910A910B910C910123DF
:101700000D930E910F9110911191129113911491CB
:10171000159116911791189119911A911B911C917D
:101720001D9109AA2F4808F016FB002845D1002377
:101730001A9309AA04212B4808F00DFB00283FD179
:101740000021019102910391049105910691079165
:10175000089101AB0122234808F035FB98BB01AB8F
:101760004FF4807204211F4808F02DFB70BB01ABC1
:10177000022200211B4808F026FB50BB01AB4FF4AE
:1017800000720421174808F01EFB28BB1EAA042182
:10179000144808F089F910BB1248FFF707FF26B07C
:1017A00010BDFFF72FF87DE7FFF72CF880E7FFF774
:1017B00029F88AE7FFF726F89CE7FFF723F8B6E752
:1017C000FFF720F8BCE7FFF71DF8C8E7FFF71AF8A6
:1017D000CDE7FFF717F8D1E7FFF714F8D6E7FFF7E3
:1017E00011F8D9E7F00400240074014008B512484C
:1017F000124B0360124B4360002383600122C260DE
:10180000036143618361C361036206F0A7FC50B9C1
:101810000021094807F054FD40B90021064807F0AF
:101820007DFD30B908BDFEF7EDFFF1E7FEF7EAFFF9
:10183000F3E7FEF7E7FFF5E7BC0600240058004099
:10184000CE9F900008B51248124B0360124B4360C4
:10185000002383600122C260036143618361C3612D
:10186000036206F07BFC50B90021094807F028FD0F
:1018700040B90021064807F051FD30B908BDFEF718
:10188000C1FFF1E7FEF7BEFFF3E7FEF7BBFFF5E7A9
:1018900008070024005C0040CE9F900008B5124865
:1018A000124B0360124B4360002383600122C2602D
:1018B000036143618361C361036206F04FFC50B969
:1018C0000021094807F0FCFC40B90021064807F058
:1018D00025FD30B908BDFEF795FFF1E7FEF792FF51
:1018E000F3E7FEF78FFFF5E754070024001C0058CC
:1018F000CE9F9000F0B5BDB00446002137913891DD
:1019000039913A913B91BC2208A80AF087FF2368DD
:10191000794A934208D0794A934270D0784A9342E8
:1019200000F09F803DB0F0BD0823089308A803F0A5
:1019300099F900285AD1734ED6F8E03043F080036D
:10194000C6F8E030D6F8E03003F080030193019B45
:101950003023379312233893002539953A95042381
:101960003B9337A9684804F06FFCD6F8E83043F49D
:101970008003C6F8E830D6F8E83003F48003029319
:10198000029B6248624B0360232343608560C5600D
:101990004FF48063036145618561C56105624562FD
:1019A00004F06AFF28BB594BE3639C6359485A4BC8
:1019B000036024234360402383600023C3604FF40B
:1019C0008062026143618361C3610362436204F028
:1019D00053FF88B94F4BA3639C630022114621201B
:1019E00006F01EF9212006F051F99BE7FEF70AFFE9
:1019F000A1E7FEF707FFD6E7FEF704FFEAE70823B3
:101A0000089308A803F02EF940BB3E4CD4F8E03010
:101A100043F08003C4F8E030D4F8E03003F08003F2
:101A20000393039B4FF4C07337931223389301231E
:101A3000399300233A9304233B9337A9324804F0A7
:101A400003FCD4F8E83043F40003C4F8E830D4F8D9
:101A5000E83003F400030493049B63E7FEF7D2FE2F
:101A6000D3E71023089308A803F0FCF800283FD11F
:101A7000244CD4F8E03043F00203C4F8E030D4F84A
:101A8000E03003F002030593059BD4F8E03043F007
:101A90008003C4F8E030D4F8E03003F0800306930C
:101AA000069B402337931227389701263996002545
:101AB0003A9506233B9337A9184804F0C5FB4FF429
:101AC00080533793389739963A9504233B9337A937
:101AD0000D4804F0B9FBD4F8F43043F08003C4F8A7
:101AE000F430D4F8F43003F080030793079B19E730
:101AF000FEF788FEBCE700BF00580040005C0040D5
:101B0000001C005800440258001C0258CC05002458
:101B1000100002404406002428000240000402583D
:101B200008B51748174B0360174B436000238360C9
:101B3000C36003610C22426183610362436283627A
:101B4000436609F043F870B900210D4809F0BAF86E
:101B500060B900210A4809F0DAF850B9084809F0DC
:101B600092F848B908BDFEF74DFEEDE7FEF74AFED4
:101B7000EFE7FEF747FEF1E7FEF744FEF2E700BFAE
:101B800090080024000C00582433030008B51748BF
:101B9000174B03604FF4E133436000238360C3605D
:101BA00003610C2242618361C36103624362836209
:101BB00009F00CF870B900210C4809F083F860B9FD
:101BC00000210A4809F0A3F850B9084809F05BF869
:101BD00048B908BDFEF716FEEDE7FEF713FEEFE786
:101BE000FEF710FEF1E7FEF70DFEF2E7B009002464
:101BF000004C004008B51748174B03604FF4E13321
:101C0000436000238360C36003610C2242618361EF
:101C1000C36103624362836208F0D8FF70B9002198
:101C20000C4809F04FF860B900210A4809F06FF834
:101C300050B9084809F027F848B908BDFEF7E2FD99
:101C4000EDE7FEF7DFFDEFE7FEF7DCFDF1E7FEF77E
:101C5000D9FDF2E7400A00240078004008B5174893
:101C6000174B03604FF4E133436000238360C3608C
:101C700003610C2242618361C36103624362836238
:101C800008F0A4FF70B900210C4809F01BF860B9F6
:101C900000210A4809F03BF850B9084808F0F3FF62
:101CA00048B908BDFEF7AEFDEDE7FEF7ABFDEFE787
:101CB000FEF7A8FDF1E7FEF7A5FDF2E7D00A002444
:101CC000007C004008B51748174B03604FF4E13320
:101CD000436000238360C36003610C22426183611F
:101CE000C36103624362036409F082FB70B900219F
:101CF0000C4809F0ECFB60B900210A4809F00BFC24
:101D000050B9084809F0C4FB48B908BDFEF77AFD90
:101D1000EDE7FEF777FDEFE7FEF774FDF1E7FEF77D
:101D200071FDF2E7600B00240010014008B5174870
:101D3000174B03604FF4E133436000238360C360BB
:101D400003610C2242618361C36103624362836267
:101D500008F03CFF70B900210C4808F0B3FF60B9EF
:101D600000210A4808F0D3FF50B9084808F08BFF5B
:101D700048B908BDFEF746FDEDE7FEF743FDEFE786
:101D8000FEF740FDF1E7FEF73DFDF2E720090024F4
:101D900000440040F0B5C3B0044600213D913E919F
:101DA0003F9140914191BC220EA80AF037FD236873
:101DB000AB4A934210D0AB4A934256D0AA4A9342C0
:101DC00000F0D580A94A934200F00181A84A9342CD
:101DD00000F0668143B0F0BD04230E930EA802F01C
:101DE00041FF00283ED1A34BD3F8F42042F0080273
:101DF000C3F8F420D3F8F42002F008020192019A0B
:101E0000D3F8E02042F00202C3F8E020D3F8E0204B
:101E100002F002020292029AD3F8E02042F001029C
:101E2000C3F8E020D3F8E03003F001030393039BF1
:101E300080233D9302253E9500243F94409408233F
:101E400041933DA98C4804F0FFF94FF400733D9392
:101E50003E953F944094032341933DA9874804F065
:101E6000F3F9B7E7FEF7CEFCBDE702230E930EA809
:101E700002F0F8FE002871D17E4BD3F8E82042F43E
:101E80000022C3F8E820D3F8E82002F400220492EC
:101E9000049AD3F8E02042F08002C3F8E020D3F89F
:101EA000E02002F080020592059AD3F8E02042F08B
:101EB0000202C3F8E020D3F8E03003F002030693F7
:101EC000069B4FF480433D9302273E9700253F95A4
:101ED0004095082641963DA9694804F0B5F94FF4AC
:101EE00000733D933E973F95409541963DA96248CA
:101EF00004F0AAF96348644B03603F2343608560A4
:101F0000C5604FF48063036145618561C561056209
:101F1000456204F0B1FC20BB5A4BE3679C635B480D
:101F20005B4B03604023436083600023C3604FF436
:101F30008062026143618361C3610362436204F0B2
:101F40009BFC88B9514BA3679C6300221146342047
:101F500005F066FE342005F099FE3BE7FEF752FCE3
:101F60008AE7FEF74FFCD7E7FEF74CFCEAE70223CF
:101F70000E930EA802F076FE30BB3E4BD3F8E8205D
:101F800042F08042C3F8E820D3F8E82002F0804213
:101F90000792079AD3F8E02042F02002C3F8E0202D
:101FA000D3F8E03003F020030893089BC0233D934F
:101FB00002233E9300233F934093072341933DA97F
:101FC000344804F041F905E7FEF71CFCD5E702238D
:101FD0000E930EA802F046FE00283DD1254BD3F803
:101FE000E82042F00042C3F8E820D3F8E82002F0ED
:101FF00000420992099AD3F8E02042F01002C3F897
:10200000E020D3F8E02002F010020A920A9AD3F8F6
:10201000E02042F40072C3F8E020D3F8E03003F48B
:1020200000730B930B9B01233D9302263E960024E5
:102030003F944094082541953DA9174804F004F9C0
:102040004FF480733D933E963F94409441953DA953
:10205000124804F0F9F8BDE6FEF7D4FBBEE700BF76
:10206000000C0058004C004000780040007C00400C
:102070000044004000440258000402580000025886
:10208000001C0258A0070024880002401808002401
:10209000A000024000140258001002580024025808
:1020A00002230E930EA802F0DDFD30BB144BD3F8D3
:1020B000E82042F40032C3F8E820D3F8E82002F424
:1020C00000320C920C9AD3F8E02042F00802C3F8D8
:1020D000E020D3F8E03003F008030D930D9B60235C
:1020E0003D9302233E9300233F9340930723419364
:1020F0003DA9044804F0A8F86CE6FEF783FBD5E799
:1021000000440258000C025830B5B9B00446002112
:1021100033913491359136913791BC2204A80AF05D
:102120007DFB2268274B9A4201D039B030BD012394
:10213000049304A802F096FD00283FD1224BD3F867
:10214000F02042F01002C3F8F020D3F8F02002F0A3
:1021500010020192019AD3F8E02042F00102C3F884
:10216000E020D3F8E02002F001020292029AD3F8B4
:10217000E02042F00202C3F8E020D3F8E03003F0A0
:1021800002030393039B4FF480733393022534952A
:102190000024359436940723379333A90B4804F071
:1021A00053F84FF4404333933495359436940423D5
:1021B000379333A9064804F047F8B6E7FEF722FB49
:1021C000BCE700BF00100140004402580000025864
:1021D0000004025808B50A480A4B03600023436014
:1021E0007F228260FF22C26003618361C361436119
:1021F00009F016FA00B908BDFEF704FBFBE700BFC3
:10220000C00B00240040005810B5B0B00446BC22FA
:10221000002101A80AF002FB22680C4B9A4201D06F
:1022200030B010BD4FF4800301934FF400732D9331
:1022300001A802F017FD28B9054A136F43F40043C3
:102240001367EDE7FEF7DEFAF6E700BF004000583F
:102250000044025808B51348134B03604FF4800341
:102260004360002383600322C260036143614FF037
:10227000005282614FF08042C26103624362836216
:10228000C36242638363C363036443648364C3645C
:1022900003654365836509F017FA00B908BDFEF7C9
:1022A000B1FAFBE7E40B00240030014008B5134805
:1022B000134B03604FF480034360002383600322C9
:1022C000C260036143614FF0005282614FF080426F
:1022D000C261036243628362C36242638363C36316
:1022E000036443648364C36403654365836509F0E1
:1022F000EBF900B908BDFEF785FAFBE76C0C00248A
:102300000038004008B51348134B03604FF48003B6
:102310004360002383600322C260036143614FF086
:1023200080628261C361036243628362C3624FF071
:10233000804242638363C363036443648364C3640E
:1023400003654365836509F0BFF900B908BDFEF771
:1023500059FAFBE7F40C00240050014008B513487B
:10236000134B03604FF48003436000238360032218
:10237000C260036143614FF080628261C3610362A6
:1023800043628362C3624FF0804242638363C363EC
:10239000036443648364C36403654365836509F030
:1023A00093F900B908BDFEF72DFAFBE77C0D002478
:1023B0000014005870B5C0B0044600213B913C9118
:1023C0003D913E913F91BC220CA80AF027FA236868
:1023D0008D4A93420BD08D4A934251D08C4A9342FE
:1023E0007FD08C4A934200F0DC8040B070BD4FF447
:1023F00080530C930CA802F035FC00283DD1864B8D
:10240000D3F8F02042F48052C3F8F020D3F8F02043
:1024100002F480520192019AD3F8E02042F0400287
:10242000C3F8E020D3F8E02002F040020292029AC2
:10243000D3F8E02042F00802C3F8E020D3F8E030FF
:1024400003F008030393039B4FF460633B9302265E
:102450003C9600243D943E9405253F953BA96F484A
:1024600003F0F2FE80233B933C963D943E943F95CF
:102470003BA96B4803F0E8FEB7E7FEF7C3F9BEE7F8
:102480004FF480530C930CA802F0ECFB30BB624B72
:10249000D3F8E82042F48042C3F8E820D3F8E820DB
:1024A00002F480420492049AD3F8E02042F480724D
:1024B000C3F8E020D3F8E03003F480730593059B64
:1024C0000F233B9302233C9300233D933E9305232C
:1024D0003F933BA9534803F0B7FE86E7FEF792F916
:1024E000D5E74FF400530C930CA802F0BBFB002877
:1024F00054D1494BD3F8F02042F48012C3F8F020B5
:10250000D3F8F02002F480120692069AD3F8E02065
:1025100042F48062C3F8E020D3F8E02002F4806245
:102520000792079AD3F8E02042F02002C3F8E02097
:10253000D3F8E02002F020020892089AD3F8E020B5
:1025400042F40072C3F8E020D3F8E03003F40073E3
:102550000993099B01233B9302263C9600243D945A
:102560003E9405253F953BA92F4803F06DFE4FF49F
:1025700080733B933C963D943E943F953BA92B48FA
:1025800003F062FE4FF480633B933C963D943E948F
:102590003F953BA9264803F057FE26E7FEF732F9A0
:1025A000A7E74FF480430C930CA802F05BFB38BB09
:1025B000194BD3F8F42042F02002C3F8F420D3F8EA
:1025C000F42002F020020A920A9AD3F8E02042F0A6
:1025D0004002C3F8E020D3F8E03003F040030B934F
:1025E0000B9B4FF4E0433B9302233C9300233D932A
:1025F0003E9305233F933BA9084803F025FEF4E6EC
:10260000FEF700F9D4E700BF003001400038004079
:1026100000500140001400580044025800180258AD
:10262000000C0258002002580028025800140258DA
:102630000024025800B589B0002304930593069343
:1026400007930193029303931648174A026040F2DE
:102650005722426083600922C26003614361836143
:1026600009F0FCFBA0B94FF48053049304A90D4872
:1026700009F06EFE78B9202301930023029303939F
:1026800001A9084809F05EFF40B909B05DF804FBF4
:10269000FEF7B8F8E7E7FEF7B5F8ECE7FEF7B2F8B3
:1026A000F3E700BF040E00240000014000B591B024
:1026B0002422002107A80AF0B1F80023049305930F
:1026C000069300930193029303932048204A0260EB
:1026D000436083604FF6FF72C2600361836109F05B
:1026E0001DFC30BB012207920023089309920A9334
:1026F0000B930C930D920E930F9307A9134809F0B7
:102700003DFCC8B900230493069304A90F4809F0BF
:1027100019FFA0B9002300930122019202930393B1
:1027200008226946094809F0ABFD58B911B05DF8B7
:1027300004FBFEF767F8D5E7FEF764F8E2E7FEF77B
:1027400061F8E7E7FEF75EF8F0E700BFB01000249D
:102750000008004000B58DB02422002103A80AF033
:102760005DF800230093019302931148114A02601F
:10277000436083604FF0FF32C260036183610123D5
:1027800003930593099303A909F0F8FB50B90023BB
:10279000009302936946064809F0D4FE28B90DB0AB
:1027A0005DF804FBFEF72EF8F1E7FEF72BF8F6E7ED
:1027B000FC100024000C004000B585B000230193FC
:1027C000029303930E480F4A0260436083604FF602
:1027D000FF72C260836109F041FB50B9002301938D
:1027E000039301A9064809F0ADFE28B905B05DF8CC
:1027F00004FBFEF707F8F1E7FEF704F8F6E700BF81
:10280000481100240010004000B585B0002301935A
:10281000029303930E480F4A0260436083604FF6B1
:10282000FF72C260836109F019FB50B90023019364
:10283000039301A9064809F085FE28B905B05DF8A3
:1028400004FBFDF7DFFFF1E7FDF7DCFFF6E700BF74
:10285000941100240014004000B58DB02422002102
:1028600003A809F0DBFF00230093019302931248B1
:10287000124A0260436083604FF6FF72C2600361D8
:1028800043618361012303930593099303A909F02D
:1028900075FB58B9002300930193029369460648DB
:1028A00009F050FE28B90DB05DF804FBFDF7AAFF52
:1028B000F0E7FDF7A7FFF6E7E01100240004014070
:1028C00000B58BB0002305930693079308930993F3
:1028D00001930293039304931E481F4A02604360CE
:1028E00083604FF6FF72C2600361836109F016FBDB
:1028F00020BB0423059350230693002307930893DA
:10290000099305A9134809F0F3FDD0B900220192FB
:10291000012302930392049201A90E4809F0B0FC2E
:1029200090B902230193029304220DEB020109489E
:1029300009F0A6FC58B90BB05DF804FBFDF762FF87
:10294000D7E7FDF75FFFE1E7FDF75CFFE9E7FDF79C
:1029500059FFF0E7500E00240018004008B5094860
:10296000094B03600023436083604FF6FF72C2602F
:102970000361836109F072FA00B908BDFDF742FFF7
:10298000FBE700BF9C0E0024001C004000B589B08E
:1029900000230593069307930193029303930493F3
:1029A0001748184A0260436083604FF6FF72C260A6
:1029B00003614361836109F0B1FAB8B9002305935B
:1029C000079305A90E4809F0BDFD90B900230193B6
:1029D000012202920393049304220DEB02010848A2
:1029E00009F04EFC40B909B05DF804FBFDF70AFFA1
:1029F000E4E7FDF707FFE9E7FDF704FFF3E700BFB2
:102A0000340F00240040014008B50948094B036019
:102A10000023436083604FF6FF72C260036143612D
:102A2000836109F01BFA00B908BDFDF7EBFEFBE777
:102A3000800F00240044014008B50948094B036099
:102A40000023436083604FF6FF72C26003614361FD
:102A5000836109F003FA00B908BDFDF7D3FEFBE777
:102A6000CC0F00240048014000B589B00368404AFB
:102A700093421FD03F4A934232D03F4A93423FD0C5
:102A80003E4A93424AD03E4A934255D03D4A9342F1
:102A900060D03D4A934230D13C4BD3F8F02042F411
:102AA0008022C3F8F020D3F8F03003F4802307939A
:102AB000079B22E0354BD3F8F02042F00102C3F827
:102AC000F020D3F8F03003F001030193019B0022C2
:102AD0001146192005F0A4F8192005F0D7F80CE0EC
:102AE0002A4BD3F8E82042F01002C3F8E820D3F8CC
:102AF000E83003F010030293029B09B05DF804FB79
:102B0000224BD3F8E82042F02002C3F8E820D3F8A3
:102B1000E83003F020030393039BEEE71B4BD3F84D
:102B2000E82042F08002C3F8E820D3F8E83003F050
:102B300080030493049BE0E7144BD3F8E82042F4AD
:102B40008072C3F8E820D3F8E83003F4807305936B
:102B5000059BD2E70D4BD3F8F02042F40032C3F8C6
:102B6000F020D3F8F03003F400330693069BC4E75B
:102B7000000001400010004000140040001C004014
:102B80000020004000440140004801400044025839
:102B900030B591B000230B930C930D930E930F93CC
:102BA0000368B3F1804F0BD0644A934243D0644A28
:102BB00093427CD0634A934200F09C8011B030BDB8
:102BC000614BD3F8E82042F00102C3F8E820D3F8C3
:102BD000E82002F001020192019AD3F8E02042F0CD
:102BE0000102C3F8E020D3F8E02002F001020292D3
:102BF000029AD3F8E02042F00202C3F8E020D3F8B2
:102C0000E03003F002030393039B01240B9402259D
:102C10000C950F940BA94D4803F016FB4FF48063FD
:102C20000B930C9500230D930E930F940BA948481A
:102C300003F00AFBC2E7444BD3F8E82042F0040259
:102C4000C3F8E820D3F8E82002F004020492049AC2
:102C5000D3F8E02042F00202C3F8E020D3F8E020ED
:102C600002F002020592059AD3F8E02042F0080231
:102C7000C3F8E020D3F8E03003F008030693069B86
:102C80004FF480730B9302240C940F940BA93048DB
:102C900003F0DAFA4FF440530B930C9400230D9396
:102CA0000E930F940BA92B4803F0CEFA86E7264B20
:102CB000D3F8E82042F04002C3F8E820D3F8E82037
:102CC00002F040020792079AD3F8E02042F0800217
:102CD000C3F8E020D3F8E03003F080030893089BAA
:102CE00040230B9302230C930F930BA91A4803F074
:102CF000ABFA63E7144BD3F8F02042F48032C3F808
:102D0000F020D3F8F02002F480320992099AD3F827
:102D1000E02042F01002C3F8E020D3F8E03003F0E6
:102D200010030A930A9B40230B9302230C93042362
:102D30000F930BA9094803F087FA3FE7000800400A
:102D400000180040004001400044025800000258B2
:102D500000040258000C0258001C025800100258CF
:102D600002680A4B9A4200D0704782B0084BD3F8F1
:102D7000E82042F00202C3F8E820D3F8E83003F07C
:102D800002030193019B02B0704700BF00040040A2
:102D90000044025800B58BB00023059306930793B7
:102DA000089309930368284A934205D0274A93421F
:102DB00026D00BB05DF804FB254BD3F8E82042F099
:102DC0000802C3F8E820D3F8E82002F008020192D4
:102DD000019AD3F8E02042F08002C3F8E020D3F853
:102DE000E03003F080030293029B4FF440630593AD
:102DF00002230693099305A9164803F025FAD8E79C
:102E0000134BD3F8F02042F00202C3F8F020D3F8BD
:102E1000F02002F002020392039AD3F8E02042F479
:102E20008072C3F8E020D3F8E03003F48073049399
:102E3000049B60230593022306930323099305A9AA
:102E4000054803F001FAB4E7000C0040000401401B
:102E500000440258001C02580020025800B589B0F6
:102E60000023039304930593069307930368B3F138
:102E7000804F08D0284A93421DD0284A934231D02F
:102E800009B05DF804FB264BD3F8E02042F00102C4
:102E9000C3F8E020D3F8E03003F001030093009B77
:102EA00008230393022304930123079303A91D48D6
:102EB00003F0CAF9E4E71A4BD3F8E02042F001022C
:102EC000C3F8E020D3F8E03003F001030193019B45
:102ED0004023039302230493079303A9114803F0AB
:102EE000B3F9CDE70E4BD3F8E02042F02002C3F84F
:102EF000E020D3F8E03003F020030293029B4FF46C
:102F000000730393022304930923079303A906483C
:102F100003F09AF9B4E700BF00040040002000402D
:102F200000440258000002580014025800B58FB047
:102F300000230B930C930D930793089309930A9323
:102F400000930193029303930493059306932848F7
:102F50004FF080420260436083604FF0FF32C260F6
:102F60000361836108F0DAFF00282FD1204808F0C0
:102F7000A5FF00282DD100230B930D930BA91C480E
:102F800009F0E0FA40BB002207920123089309925E
:102F90000A9207A9164809F073F900BB082207A98D
:102FA000134809F06DF9E8B96023009300230193F9
:102FB000029304930C2269460D4809F083F8A0B9E6
:102FC0000B48FFF74BFF0FB05DF804FBFDF71AFC51
:102FD000CCE7FDF717FCCEE7FDF714FCD3E7FDF7D0
:102FE00011FCDBE7FDF70EFCDEE7FDF70BFCE7E786
:102FF0001810002400B58BB00023079308930993A1
:103000000093019302930393049305930693174847
:10301000174A0260436083604FF6FF72C26003612B
:10302000836108F04BFFC0B900230793099307A9F8
:103030000E4809F087FA98B96023009300220192A4
:10304000029204926946094809F03CF858B90748C9
:10305000FFF704FF0BB05DF804FBFDF7D3FBE3E7DC
:10306000FDF7D0FBE8E7FDF7CDFBF0E764100024A7
:103070000004004000B589B000230193029303933C
:1030800004930593069307931548164A026043601C
:1030900083604FF6FF72C2600361836108F0DEFE59
:1030A000A0B90F4808F00AFF98B9602301930022E5
:1030B00002920392059201A9094809F003F858B950
:1030C0000748FFF7CBFE09B05DF804FBFDF79AFB5C
:1030D000E7E7FDF797FBE8E7FDF794FBF0E700BFB4
:1030E000E80E0024002000407047FEE7FEE7FEE700
:1030F000FEE7FEE770477047704708B504F03EFEF4
:1031000008BD000008B5024804F0ACF908BD00BFD6
:10311000CC05002408B5024804F0A4F908BD00BF9E
:103120004406002408B5024804F09CF908BD00BF1D
:10313000C803002408B5024804F094F908BD00BF94
:103140004004002408B5024804F08CF908BD00BF13
:103150003C03002408B5024804F084F908BD00BF10
:10316000A007002408B5024804F07CF908BD00BFA0
:103170001808002408B5034800F03EF8024800F0A3
:103180003BF808BD100200247402002408B5024870
:1031900008F015FD08BD00BF040E002408B5024864
:1031A00005F0A4F908BD00BFBC06002408B502481C
:1031B00006F042F808BD00BFBC06002408B502486E
:1031C00006F002FF08BD00BFB009002482B0074B23
:1031D000D3F8F42042F00202C3F8F420D3F8F4301C
:1031E00003F002030193019B02B0704700440258B0
:1031F0007047704770470000F8B5044603681D68C3
:103200005E689649964A934218BF8B4240D1954BCF
:103210009F6807F01F0715F0020F10D016F0020F7D
:103220000DD0636D13F0100F03D1636D43F4006391
:103230006365204600F0A8FD236802221A6015F09D
:10324000040F02D016F0040F05D115F0080F4FD06F
:1032500016F0080F4CD0636D13F0100F03D1636D9F
:1032600043F4007363652368DA6812F4406F39D160
:103270007B4A93420ED01A4693420ED0052F14BFBC
:10328000002101214FB141B9092F06D0D26805E0D4
:10329000754BBDE7A2F58072EEE7DA6812F4005FC5
:1032A00020D11A6812F0080F1CD09A6812F0040F8F
:1032B00010D15A6822F00C025A60636D23F48073B7
:1032C0006365636D13F4805F0CD1636D43F001039C
:1032D000636507E0636D43F010036365A36D43F01E
:1032E0000103A3652046FFF783FF23680C221A60C1
:1032F00015F0200F02D016F0200F05D115F0400F69
:1033000063D016F0400F60D0636D13F0100F03D13F
:10331000636D43F4005363652368DA6C12F4C07F75
:1033200019D10121DA6812F4406F16D101204C4AFC
:10333000934214D01A46934214D0062F14BF4FF074
:10334000000C4FF0010C6FB1BCF1000F0AD1072F38
:1033500008D0D26807E00021E4E70020E7E7A2F503
:103360008072E8E7DA6831B912F0007F27D130B314
:1033700012F4005F23D1196811F0400F1FD012F42E
:10338000001F1CD19A6812F0080F10D15A6822F061
:1033900060025A60636D23F480536365636D13F4B8
:1033A000807F0CD1636D43F00103636507E0636DBB
:1033B00043F010036365A36D43F00103A36520464A
:1033C00000F0DEFC236860221A6015F0800F02D046
:1033D00016F0800F36D115F4807F02D016F4807F6E
:1033E00044D115F4007F02D016F4007F4AD115F0C5
:1033F000100F20D016F0100F1DD0236B6BB1002FD3
:103400004ED023681549164A934218BF8B4245D1C6
:10341000144B9B6813F4404F0AD0636D43F48063F0
:103420006365A36D43F00203A3652046FFF7E2FE48
:10343000236810221A6015F4806F02D016F4806F92
:1034400034D1F8BD636D43F4803363652046FFF7E4
:10345000D0FE236880221A60BDE700BF0020024032
:10346000002102400023024000630258636D43F4D0
:1034700000336365204600F085FC23684FF48072BA
:103480001A60AEE7636D43F480236365204600F065
:103490007AFC23684FF400721A60A8E70B4BB8E778
:1034A0002368DB6813F0030FC2D0B6E7636D43F403
:1034B00080436365A36D43F00803A36523684FF45D
:1034C00080621A60204600F05CFCBAE70063025894
:1034D000F0B583B00022019290F85020012A00F04C
:1034E00055820346012280F850200068826812F05D
:1034F000040F09D05A6D42F020025A6501200022C3
:1035000083F8502003B0F0BD0A68C2F31304002C06
:103510004ED1C2F3846201249440C2692243C26145
:103520001D684C683035220A920002F00C02A8583F
:1035300004F01F0E1F2404FA0EF420EA04000C68A5
:10354000C4F3846C0CFA0EFC40EA0C00A8501C6812
:10355000A26812F0040200D00122A06810F0080056
:1035600000D0012002432FD01868826812F0010FAA
:1035700040F008820A68CD68D0F8C040C2F3130654
:1035800024EA060405F0180CB24D25FA0CF52A4081
:10359000C2F313022243C0F8C020C868AE4A90426A
:1035A00000F0B0800A68002AC0F26B810020A6E714
:1035B00092FAA2F232B1B2FA82F202F01F020124B0
:1035C0009440AAE72022F8E70F688D681434780E3B
:1035D000800000F004002658C7F3045E4FF0070C8B
:1035E0000CFA0EFC26EA0C0C05FA0EF54CEA050561
:1035F00025509A48006800F07040B0F1805F0BD011
:103600001C68E06810F0100F39D14869E468C4F311
:1036100082046400A04006E048691C68E468C4F3C2
:1036200082046400A0400D69042D36D01F680E6826
:10363000603757F8254004F0004406F0F846304360
:10364000204347F8250018680E694C7E012C1ED0D7
:103650001546603050F8264024F000442C4340F8D2
:1036600026401D680C69087E012813D0286920F4C3
:10367000F04004F01F04A24002432A6174E7486945
:10368000E468A40804F004046400A040CBE74FF011
:103690000045DEE74FF40062E8E71868026E02F0CA
:1036A000F8420C68B2EB846F1DD01868426E02F0CD
:1036B000F8420C68B2EB846F1AD01868826E02F080
:1036C000F8420C68B2EB846F17D01868C26E02F033
:1036D000F8420C68B2EB846F7FF446AFC26E22F002
:1036E0000042C26640E7026E22F000420266DCE75A
:1036F000426E22F000424266DFE7826E22F0004214
:103700008266E2E71C680A68C2F31305002D34D113
:10371000900E013000F01F0009288CBF002001200E
:10372000002861D0002D37D1900E0130800600F0C6
:10373000F840002D3CD1960E013606F01F070126F9
:10374000BE403043002D41D1920E013202F01F02E3
:1037500002EB42021205024388681434550EAD0094
:1037600005F004056659C2F304520727974026EA7C
:10377000070690403043605114E792FAA2F048B136
:10378000B0FA80F0013000F01F0009288CBF002043
:103790000120C5E72020F5E792FAA2F030B1B0FA97
:1037A00080F00130800600F0F840C2E72020F8E702
:1037B00092FAA2F646B1B6FA86F6013606F01F0670
:1037C000012707FA06F6BCE72026F6E792FAA2F2EE
:1037D00042B1B2FA82F2013202F01F0202EB42025F
:1037E0001205B8E72022F6E7CDB9900E0130800629
:1037F00000F0F840FDB9960E013606F01F070126CD
:10380000BE40304365BB920E013202F01F0202EB54
:1038100042021E3A120542F0007202439CE792FAFD
:10382000A2F030B1B0FA80F00130800600F0F8402C
:10383000E0E72020F8E792FAA2F646B1B6FA86F65B
:10384000013606F01F06012707FA06F6D9E72026FB
:10385000F6E700BFFFFF0F000000FF470010005C0D
:1038600092FAA2F25AB1B2FA82F2013202F01F02C7
:1038700002EB42021E3A120542F00072CDE720220E
:10388000F3E719684248434CA14218BF81420CBF7C
:103890000120002021D1404EB56805F0E077F0B15D
:1038A0003B48806810F0010000D00120394CA4682A
:1038B00014F0010400D0012420430CBF012000209B
:1038C000002859D03548824212D03548824231D042
:1038D000344882423FD0002011E6334EDCE73348C3
:1038E000806810F0010000D0012080F00100E7E7BF
:1038F00015F4000FE9D12D4A914201D00020FEE5D8
:1039000047F40002B16821F0E0710A43B260284A2E
:10391000126892092749A1FB021292090132520052
:10392000019202E0019A013A0192019A002AF9D12A
:103930000020E4E515F0807FCAD11C4A914201D0F5
:103940000020DCE547F08072B16821F0E0710A43A5
:10395000B2600020D3E515F4800F15D1134A9142CF
:1039600001D00020CBE547F48002B16821F0E0717E
:103970000A43B2600020C2E55A6D42F020025A6547
:103980000120BCE50020BAE50020B8E50220B9E539
:10399000002002400021024000230240000084CBAE
:1039A000000052C70000B8CF006302580060025800
:1039B00008000024632D3E0538B5044603684F49CE
:1039C0004F4A934218BF8B4223D14E4B9B6813F44E
:1039D000403F14BF012300234BB300F0F1FF054625
:1039E0006368B3F5003F1CD0B3F5403F1DD0B3F57D
:1039F000803F16D004F0E8F941F20303984257D80B
:103A0000414B9D424ED92268936843F48073936082
:103A100038BD3E4B9B6813F4403F14BF0123002385
:103A2000DAE71B0CB5FBF3F5E4E78508E2E74FF4B2
:103A3000002002F0FFF805466368B3F5101F2DD093
:103A400022D8B3F5E01F27D004D9B3F5001FD1D198
:103A50004509CFE7B3F5801F0DD006D9B3F5A01FF8
:103A600009D0B3F5C01F06D0C4E7B3F5002F02D0CC
:103A7000B3F5402F04D19B0C5B00B5FBF3F5B9E720
:103A8000B3F5802FF7D0B5E7B3F5201F08D0B3F515
:103A9000301FAFD1050AADE70509ABE78509A9E7F6
:103AA000C509A7E72268936823F480739360AFE7A2
:103AB000174B9D4205D82268936823F440739360A6
:103AC000A6E7144B9D4207D82268936823F44073FD
:103AD00043F4807393609BE70F4B9D4207D82268A5
:103AE000936823F4407343F40073936090E7226873
:103AF000936843F4407393608AE700BF002002405C
:103B00000021024000230240002D310100630258D1
:103B100021BCBE0041787D0181F0FA0230B583B04E
:103B200000230193002800F010810446436DEBB19F
:103B300023689A6812F0005F03D09968844A0A40AB
:103B40009A6023689A6812F0805F1CD19968814A54
:103B50000A4042F080529A607F4B1B689B097F4A63
:103B6000A2FB03239B090133019309E0FDF7E6F96A
:103B70000023A36584F85030DAE7019B013B0193F1
:103B8000019B002BF9D12268936813F0805F40F00D
:103B90009C80636D43F010036365A36D43F00103E4
:103BA000A3650125936813F0040300D00123616D20
:103BB00011F0100F40F0C180002B40F0BE80636D0B
:103BC00023F4817343F002036365936813F0010FDC
:103BD00021D16349634B9A4218BF8A420CBF01222C
:103BE000002274D18B6813F0010300D001235D49DA
:103BF000896811F0010100D001210B430CBF0123A2
:103C0000002343B1002A6BD0574963688A6822F4C5
:103C10007C1213438B6004F0D7F841F203039842FF
:103C200002D9A368102B5DD0627D236B43EA423337
:103C3000A2681343227F43EA0243227F012A5CD019
:103C4000626A22B102F47872A16A0A4313432168BE
:103C5000C868464A02401343CB6021688B6813F062
:103C6000040300D001238A6812F0080200D0012268
:103C700013431BD1227DE36A43EA8232C8683C4B7E
:103C800003401343CB6094F83830012B3AD02268BC
:103C9000136923F0010313612268136923F0704351
:103CA000616B0B4313612046FFF786FEE368012B2F
:103CB0003AD02268136B23F00F031363636D23F074
:103CC000030343F0010363653CE000256AE7294BE9
:103CD0009B6813F0010300D0012383F0010390E7F8
:103CE000254992E7617D226B42EA41321343227FEC
:103CF00043EA024343F00C039FE7226A013A43EA96
:103D000042439DE7206802691C4B1340E26B511E41
:103D1000226C42EA0142616C0A43A16C0A431343DC
:103D200043F001030361B7E721680B6B23F00F0336
:103D3000A269013A13430B63C0E7636D43F01003BC
:103D400063650125284603B030BD0125FAE700BFB1
:103D5000C0FFFF5FC0FFFF6F08000024632D3E051A
:103D600000200240002102400023024003C0F0FF77
:103D7000FCBFFFFF00600258006302581EF800FC01
:103D800070477047704770477047000090F85020A8
:103D9000012A00F0A18030B49AB00346012280F8D5
:103DA000502000221692179200684C4A904242D04E
:103DB00000220192019A002A41D0926812F0040276
:103DC00000D00122846814F0040F76D1002A74D147
:103DD000424C434A904218BFA04239D102F50072CA
:103DE000086800283FD0906820F440404C68204389
:103DF00090601868394D3A4CA04218BFA84229D1AA
:103E0000A86810F0010000D00120354CA46814F01F
:103E1000010400D0012420430CBF01200020002811
:103E200056D094682F4820400C6889682143084385
:103E30009060002046E002F580720192BAE75A6D68
:103E400042F020025A65002283F8502001203CE015
:103E5000254AC5E72548806810F0010000D0012000
:103E600080F00100DBE7916821F44041916019681E
:103E70001A4C1B48814218BFA14215D1A16811F00C
:103E8000010100D001211648806810F0010000D027
:103E9000012001430CBF01210021D9B190681149D3
:103EA0000140916000200DE01049896811F0010186
:103EB00000D0012181F00101EFE75A6D42F02002AC
:103EC0005A650120002283F850201AB030BC704798
:103ED0000020F7E70020F5E70220704700200240AD
:103EE00000210240E0F0FFFF00630258006002582A
:103EF000002800F0028338B50446036813F0010F70
:103F000025D09C4A136903F03803926A102B15D010
:103F1000182B0FD06368B3F5803F3FD0002B53D1EF
:103F2000944B1A6822F480321A601A6822F48022B4
:103F30001A6038E002F00302022AEBD18D4B1B68B5
:103F400013F4003F03D06368002B00F0D88223688D
:103F500013F0020F00F08B80864A1369926A13F007
:103F600038035AD0182B55D0E368002B00F0C880D6
:103F700080490A6822F0190213430B6003F00AFF1C
:103F800005467C4B1B6813F0040F40F0978003F04C
:103F900001FF401B0228F4D90320B7E2754A1368D9
:103FA00043F48033136063682BB303F0F3FE0546DC
:103FB000704B1B6813F4003FC9D103F0EBFE401BAC
:103FC0006428F5D90320A1E2B3F5A02F09D0694BED
:103FD0001A6822F480321A601A6822F480221A6069
:103FE000E1E7644B1A6842F480221A601A6842F4CE
:103FF00080321A60D7E703F0CDFE05465D4B1B68A3
:1040000013F4003FA3D003F0C5FE401B6428F5D98C
:1040100003207BE212F0030FA6D1564B1B6813F06E
:10402000040F03D0E368002B00F06B8203F0CCFE9A
:1040300041F20303984212D82269402A07D04D4921
:104040004B6823F47C3343EA02334B600FE0494A68
:10405000536823F47C3343F40033536007E0454A4C
:10406000536823F0FE43216943EA016353602368E8
:1040700013F0100F00F088803E4A136903F03803F4
:10408000926A082B54D0182B4ED0E369002B00F015
:10409000B880384A136843F08003136003F07AFE57
:1040A0000546344B1B6813F4807F40F0888003F092
:1040B00071FE401B0228F4D9032027E203F084FE9E
:1040C00041F20303984212D82269402A07D02949B5
:1040D0004B6823F47C3343EA02334B60C7E7254A3D
:1040E000536823F47C3343F400335360BFE7214A21
:1040F000536823F0FE43216943EA01635360B6E746
:104100001C4A136823F00103136003F043FE0546C5
:10411000184B1B6813F0040FA9D003F03BFE401BA3
:104120000228F5D90320F1E102F00302012AACD103
:10413000104B1B6813F4807F03D0E369802B40F0A1
:10414000E28103F041FE41F20303984214D8226A4F
:10415000202A07D007494B6823F0F84343EA8263DB
:104160004B6011E0034A536823F0F84343F0804367
:10417000536009E0004402589A4AD36823F07C5304
:10418000216A43EA0163D360236813F0080F60D00B
:104190006369002B49D0934A536F43F0010353677F
:1041A00003F0F8FD05468F4B5B6F13F0020F50D103
:1041B00003F0F0FD401B0228F5D90320A6E103F02F
:1041C00003FE41F20303984212D8226A202A07D044
:1041D00084494B6823F0F84343EA82634B60D3E79A
:1041E000804A536823F0F84343F080435360CBE7A1
:1041F0007C4AD36823F07C53216A43EA0163D3608D
:10420000C2E7784A136823F08003136003F0C2FD0D
:104210000546744B1B6813F4807FB5D003F0BAFDDC
:10422000401B0228F5D9032070E16E4A536F23F03A
:104230000103536703F0AEFD05466A4B5B6F13F055
:10424000020F06D003F0A6FD401B0228F5D903207B
:104250005CE1236813F0200F29D0A3699BB1614A68
:10426000136843F48053136003F094FD05465D4BDF
:104270001B6813F4005F1AD103F08CFD401B022869
:10428000F5D9032042E1574A136823F480531360A1
:1042900003F080FD0546534B1B6813F4005F06D006
:1042A00003F078FD401B0228F5D903202EE1236896
:1042B00013F0040F21D1636A002B00F02681494AD4
:1042C000126902F03802182A00F0EE80022B75D035
:1042D000444A136823F08073136003F05BFD0446C7
:1042E000404B1B6813F0007F00F0DC8003F052FDB0
:1042F000001B0228F4D9032008E13B4A136843F469
:104300008073136003F046FD0546374B1B6813F4BA
:10431000807F06D103F03EFD401B6428F5D90320C1
:10432000F4E0A368012B0AD00BBB2E4B1A6F22F0CE
:1043300001021A671A6F22F004021A6704E0294A80
:10434000136F43F001031367A36833B303F022FD37
:104350000546244B1B6F13F0020FACD103F01AFD7E
:10436000401B41F288339842F3D90320CEE0052B5D
:1043700009D01C4B1A6F22F001021A671A6F22F043
:1043800004021A67E0E7174B1A6F42F004021A673B
:104390001A6F42F001021A67D6E703F0FBFC0546EC
:1043A000104B1B6F13F0020F85D003F0F3FC401B82
:1043B00041F288339842F3D90320A7E0094A1368F1
:1043C00023F08073136003F0E5FC0546054B1B6882
:1043D00013F0007F0AD003F0DDFC401B0228F5D962
:1043E000032093E000440258004802584F4B996A5A
:1043F0004F4A0A40A16AE06A41EA00110A439A6200
:10440000226B013AC2F30802616B0139490289B299
:104410000A43A16B0139090401F4FE010A43E16B6F
:104420000139090601F0FE410A431A63DA6A22F0F3
:104430000102DA62596B3F4A0A40A16C42EAC102AA
:104440005A63DA6A22F00C02216C0A43DA62DA6AF1
:1044500022F00202616C0A43DA62DA6A42F48032C4
:10446000DA62DA6A42F40032DA62DA6A42F480220C
:10447000DA62DA6A42F00102DA621A6842F08072A5
:104480001A6003F087FC0446284B1B6813F0007F7A
:1044900006D103F07FFC001B0228F5D9032035E08C
:1044A000002033E0002031E0204A916A106B012B9C
:1044B0002DD001F00303A26A93422AD1C1F3051162
:1044C000E36A994227D1C0F30802236B013B9A4269
:1044D00023D1C0F34622636B013B9A421FD1C0F344
:1044E0000642A36B013B9A421BD1C0F30660E36B0B
:1044F000013B984217D1002008E0012070470120BD
:1045000004E0012002E0012000E0002038BD01208D
:10451000FCE70120FAE70120F8E70120F6E7012097
:10452000F4E70120F2E70120F0E700BF0044025861
:104530000CFCFFFF0700FFFF744B1B6903F03803FF
:10454000102B00F0DE80182B10D00BB17048704794
:104550006E4B1B6813F0200F00F0D5806B4B186872
:10456000C0F3C1006B4B23FA00F0704710B4674AE8
:10457000916A01F00301946AC4F30510D36A03F051
:10458000010C536BC3F3CC030CFB03F307EE903A1F
:10459000F8EE677A14F47C7F00F09380012965D0EF
:1045A000022900F09180E1B107EE100AF8EE476AA7
:1045B0009FED596A86EE267A544B1B6BC3F30803B2
:1045C00006EE903AF8EE666A9FED546A67EE867AD8
:1045D00076EEA77AF7EE006A77EEA67A27EE277ACC
:1045E00060E0136813F0200F23D011461268C2F365
:1045F000C102484BD34007EE103AF8EE476A07EE87
:10460000100AB8EE476A86EE867A0B6BC3F308038E
:1046100006EE903AF8EE666A9FED406A67EE867A9B
:1046200076EEA77AF7EE006A77EEA67A27EE277A7B
:1046300038E007EE100AF8EE476A9FED396A86EE19
:10464000267A324B1B6BC3F3080306EE903AF8EE62
:10465000666A9FED326A67EE867A76EEA77AF7EEA3
:10466000006A77EEA67A27EE277A1BE007EE100A9B
:10467000F8EE476A9FED286A86EE267A234B1B6B7D
:10468000C3F3080306EE903AF8EE666A9FED236ADC
:1046900067EE867A76EEA77AF7EE006A77EEA67A6C
:1046A00027EE277A194B1B6BC3F34623013307EE22
:1046B000903AF8EE677AC7EE276AFCEEE67A17EED4
:1046C000900A5DF8044B704707EE100AF8EE476A4F
:1046D0009FED146A86EE267A0C4B1B6BC3F308031E
:1046E00006EE903AF8EE666A9FED0C6A67EE867AFF
:1046F00076EEA77AF7EE006A77EEA67A27EE277AAB
:10470000D0E7094870470348704700BF004402588B
:1047100000093D000090D0030024744A00000039D5
:104720000024744C0024744B0024F400002800F092
:10473000328170B50D4604469B4B1B6803F00F0396
:104740008B420BD2984A136823F00F030B4313607C
:10475000136803F00F038B4240F01F81236813F0AE
:10476000040F0CD02269914B9B6903F070039A42AD
:1047700005D98E498B6923F070031A438A61236837
:1047800013F0080F0CD06269884BDB6903F07003EB
:104790009A4205D98549CB6923F070031A43CA614F
:1047A000236813F0100F0CD0A269804BDB6903F46F
:1047B000E0639A4205D97D49CB6923F4E0631A434B
:1047C000CA61236813F0200F0CD0E269774B1B6A93
:1047D00003F070039A4205D974490B6A23F0700301
:1047E0001A430A62236813F0020F0CD0E2686F4B81
:1047F0009B6903F00F039A4205D96C498B6923F03A
:104800000F031A438A61236813F0010F41D0674AEE
:10481000936923F47063A1680B4393616368022B6F
:104820000AD0032B27D0012B2CD0604A126812F03B
:10483000040F06D10120ADE0126812F4003F00F031
:10484000AE805A490A6922F0070213430B6103F054
:10485000A1FA0646554B1B6903F038036268B3EBB7
:10486000C20F16D003F096FA801B41F288339842AB
:10487000F0D903208EE04D4A126812F0007FE0D19B
:10488000012087E0494A126812F4807FD9D10120C3
:1048900080E0236813F0020F0CD0E268434B9B6961
:1048A00003F00F039A4205D240498B6923F00F03AE
:1048B0001A438A613C4B1B6803F00F03AB420AD9D1
:1048C000394A136823F00F032B431360136803F076
:1048D0000F03AB4265D1236813F0040F0CD022699B
:1048E000324B9B6903F070039A4205D22F498B69C2
:1048F00023F070031A438A61236813F0080F0CD069
:1049000062692A4BDB6903F070039A4205D227499A
:10491000CB6923F070031A43CA61236813F0100FA8
:104920000CD0A269214BDB6903F4E0639A4205D203
:104930001E49CB6923F4E0631A43CA61236813F06C
:10494000200F0CD0E269194B1B6A03F070039A42E6
:1049500005D216490B6A23F070031A430A62FFF767
:10496000EBFD12498B69C3F30323114AD35C03F0B7
:104970001F03D8408B6903F00F03D35C03F01F03C0
:1049800020FA03F30B4A13600B4B18600B4B1868AB
:1049900003F09EF970BD012070470120FAE7012065
:1049A000F8E70120F6E700BF00200052004402585B
:1049B00094F500080C0000240800002404000024E2
:1049C00008B5FFF7B9FD0B4A9369C3F303230A49FE
:1049D000CB5C03F01F0320FA03F3926902F00F028D
:1049E000885C00F01F0023FA00F0044A1060044ABB
:1049F000136008BD0044025894F500080C00002420
:104A00000800002408B5FFF7DBFF054BDB69C3F3A3
:104A10000213044AD35C03F01F03D84008BD00BF53
:104A20000044025894F5000808B5FFF7C9FF054B8C
:104A3000DB69C3F30223044AD35C03F01F03D840AD
:104A400008BD00BF0044025894F50008404B9B6A23
:104A500003F00303032B79D070B505460E463C4A9C
:104A6000136823F08063136003F094F90446384B15
:104A70001B6813F0006F06D003F08CF9031B022BA8
:104A8000F5D9032070BD324B9A6A22F47C32296832
:104A900042EA01329A626A68013AC2F30802A968DE
:104AA0000139490289B20A43E9680139090401F46C
:104AB000FE010A4329690139090601F0FE410A4352
:104AC0009A63DA6A22F0C00269690A43DA62DA6A32
:104AD00022F02002A9690A43DA62DA6A22F010029F
:104AE000DA62D96B1B4A0A40E96942EAC102DA6319
:104AF000DA6A42F01002DA62C6B91A46DB6A43F497
:104B00000023D362124A136843F08063136003F0FA
:104B100041F904460E4B1B6813F0006F14D103F0EB
:104B200039F9001B0228F5D90320ABE7012E05D087
:104B3000074AD36A43F40013D362E3E7044AD36A13
:104B400043F48013D362DDE700209BE70120704728
:104B5000004402580700FFFF404B9B6A03F0030329
:104B6000032B79D070B505460E463C4A136823F0F6
:104B70008053136003F00EF90446384B1B6813F0A2
:104B8000005F06D003F006F9031B022BF5D90320C2
:104B900070BD324B9A6A22F07C72296842EA015257
:104BA0009A626A68013AC2F30802A96801394902A7
:104BB00089B20A43E9680139090401F4FE010A4394
:104BC00029690139090601F0FE410A431A64DA6ACB
:104BD00022F4406269690A43DA62DA6A22F40072F6
:104BE000A9690A43DA62DA6A22F48072DA62596CDD
:104BF0001B4A0A40E96942EAC1025A64DA6A42F48D
:104C00008072DA62C6B91A46DB6A43F48003D36263
:104C1000124A136843F08053136003F0BBF8044654
:104C20000E4B1B6813F0005F14D103F0B3F8001BA8
:104C30000228F5D90320ABE7012E05D0074AD36A35
:104C400043F08073D362E3E7044AD36A43F400037A
:104C5000D362DDE700209BE7012070470044025843
:104C60000700FFFFF8B50446036813F0006F30D06B
:104C7000436EB3F5001F26D00ED8EBB1B3F5801FFD
:104C800007D102210430FFF7E1FE054645B12E466B
:104C900021E0012635461EE0B3F5401F09D100256D
:104CA000954A136D23F44013616E0B431365002680
:104CB00011E0012635460EE08F4AD36A43F40033F3
:104CC000D3620025ECE702212430FFF745FF0546BB
:104CD000DCE700263546236813F4807F14D0636D2B
:104CE000042B30D8DFE803F0032228080800824AAA
:104CF000D36A43F40033D36245BB7F4A136D23F07C
:104D00000703616D0B431365236813F4007F2FD0F5
:104D1000A36D802B49D01ED8002B40D0402B17D13B
:104D20000021201DFFF792FE054619E00021201DFD
:104D3000FFF78CFE0546DFE7002104F12400FFF7B2
:104D40000BFF0546D8E701263546DDE72E46DBE7B3
:104D5000012635460CE0C02B02D0B3F5807F1BD175
:104D600055BB654A136D23F4E073A16D0B431365C6
:104D7000236813F4806F45D0D4F8A430B3F5800FC6
:104D800038D01ED883B3B3F5001F17D10021201DE2
:104D9000FFF75CFE05461AE001263546E8E7564A6D
:104DA000D36A43F40033D362DAE7002104F124002C
:104DB000FFF7D2FE0546D3E72E46D9E70126354652
:104DC00020E0B3F5C00F02D0B3F5000F09D1C5B98B
:104DD000494A936D23F46003D4F8A4100B43936500
:104DE00010E0012635460DE0434AD36A43F4003310
:104DF000D362ECE7002104F12400FFF7ADFE054685
:104E0000E5E72E46236813F4006F23D0D4F8A830CA
:104E1000B3F1007F41D00DD8002B38D0B3F1807FA3
:104E200005D10021201DFFF711FE054608E00126EF
:104E300035460FE0B3F1407F02D0B3F1806F23D14C
:104E4000002D31D12C4A936D23F0E063D4F8A810E3
:104E50000B439365236813F0007F2ED0A36C202BA7
:104E60003FD026D833B1102B20D1234AD36A43F444
:104E70000033D362002D3AD11F4AD36C23F03003A4
:104E8000A16C0B43D36418E001263546E2E71A4AC9
:104E9000D36A43F40033D362D2E7002104F1240043
:104EA000FFF75AFE0546CBE72E46D3E701263546E7
:104EB00003E0302BDED001263546236813F4805FF3
:104EC0002BD0E36DB3F5005F4CD017D8002B43D047
:104ED000B3F5805F0DD10021201DFFF7B7FD05461A
:104EE00012E00221201DFFF7B1FD0546C2E72E4664
:104EF000E3E70126354610E000440258B3F5405F71
:104F000002D0B3F5804F24D1002D32D1754A136DF4
:104F100023F4E043E16D0B431365236813F4005F52
:104F200037D0236EB3F5003F51D027D83BB1B3F54E
:104F3000803F20D10121201DFFF788FD0546002D6F
:104F40004CD1684A136D23F4E023216E0B431365A3
:104F50001FE001263546E0E7624AD36A43F4003396
:104F6000D362D1E7002104F12400FFF7F5FD0546E7
:104F7000CAE72E46D1E7012635460AE0B3F5802F71
:104F8000DDD0B3F5A02FDAD0B3F5403FD7D001265E
:104F90003546236813F4804F30D0D4F8AC30B3F1E9
:104FA000005F44D01FD83BB1B3F1805F18D101211D
:104FB000201DFFF74BFD0546002D3FD1494A936D5B
:104FC00023F0E043D4F8AC100B43936516E00121C5
:104FD00004F12400FFF7C0FD0546B0E72E46D8E7F0
:104FE000012635460AE0B3F1804FE5D0B3F1A04F7A
:104FF000E2D0B3F1405FDFD001263546236813F4D9
:10500000004F09D0E36EB3F1805F19D0B3F1005FB8
:1050100024D0D3B101263546236813F0807F32D0E7
:10502000636C032B59D8DFE803F0262152260121B7
:1050300004F12400FFF790FD0546BDE72E46DDE7AD
:10504000284AD36A43F40033D3626DB9254A136DFD
:1050500023F04053E16E0B431365DDE70121201D72
:10506000FFF7F4FC0546F0E72E46D5E71D4AD36A64
:1050700043F40033D3629DBB1A4AD36C23F003037D
:10508000616C0B43D364236813F4800F2CD1236825
:1050900013F0010F00F0A380A36F282B00F29D8076
:1050A000DFE803F08B9B9B9B9B9B9B9B869B9B9B27
:1050B0009B9B9B9B949B9B9B9B9B9B9B8B9B9B9B57
:1050C0009B9B9B9B8B9B9B9B9B9B9B9B8B000221FE
:1050D000201DFFF7BBFC0546CDE701263546D2E78C
:1050E0002E46D0E7004402588F4A136843F4807379
:1050F000136002F04FFE07468B4B1B6813F4807F52
:1051000005D102F047FEC01B6428F5D90325002D08
:105110004AD1864B1B6FD4F8B020534013F4407F24
:105120000CD0824B1A6F22F44072196F41F4803117
:105130001967196F21F4803119671A67D4F8B030F4
:10514000B3F5807F15D08DBBD4F8B03003F4407236
:10515000B2F5407F1ED0754A136923F47C53136166
:1051600072490B6FD4F8B020C2F30B0213430B67E4
:105170008DE702F00FFE07466C4B1B6F13F0020F1A
:10518000E1D102F007FEC01B41F288339842F3D907
:105190000325D8E76548026922F47C52644901EA94
:1051A000131313430361DBE72E4670E72E466EE7C9
:1051B0000121201DFFF74AFC0546E5B95B4A536D06
:1051C00023F03803A16F0B43536508E0012104F17C
:1051D0002400FFF7C1FC0546EFE7012635462368AA
:1051E00013F0020F16D0636F052B27D8DFE803F00A
:1051F0000A051F0A0A0A2E46F1E70121201DFFF7C2
:1052000025FC0546EDB9494A536D23F00703616F4C
:105210000B435365236813F0040F22D0D4F8903069
:10522000052B43D8DFE803F0140F3B1414140121BD
:1052300004F12400FFF790FC0546E3E7012635461C
:10524000E8E72E46E6E70121201DFFF7FFFB0546B4
:105250007DBB364A936D23F00703D4F890100B43BF
:105260009365236813F0200F33D0D4F88C30B3F15A
:10527000005F4CD022D83BB1B3F1805F1BD100213D
:10528000201DFFF7E3FB0546002D47D1274A536D4C
:1052900023F0E043D4F88C100B43536519E001214F
:1052A00004F12400FFF758FC0546D1E701263546F6
:1052B000D7E72E46D5E7012635460AE0B3F1804F01
:1052C000E2D0B3F1A04FDFD0B3F1405FDCD00126D4
:1052D0003546236813F0400F37D0D4F89830B3F533
:1052E000006F52D026D83BB1B3F5806F18D10021A2
:1052F000201DFFF7ABFB0546002D4DD10B4A936DEA
:1053000023F4E053D4F898100B4393651DE0022179
:1053100004F12400FFF720FC0546B5E72E46D8E748
:105320000126354611E000BF0048025800440258EB
:10533000CFFFFF00B3F5805FDED0B3F5A05FDBD019
:10534000B3F5406FD8D001263546236813F0800F9F
:1053500032D0D4F89C30B3F5804F00F09D8020D837
:105360003BB1B3F5005F19D10021201DFFF76EFBA3
:105370000546002D40F09780A54A936D23F46043C5
:10538000D4F89C100B43936516E0022104F124002D
:10539000FFF7E2FB0546AFE72E46D6E70126354686
:1053A0000AE0B3F5004FE4D0B3F5204FE1D0B3F5F8
:1053B000C04FDED001263546236813F0080F0CD00D
:1053C000D4F88030B3F5805F6FD0914A536D23F4E9
:1053D0004053D4F880100B435365236813F0100F2B
:1053E0000CD0D4F89430B3F5807F67D0884A936DA1
:1053F00023F44073D4F894100B439365236813F49B
:10540000002F0BD0D4F8A030B3F5803F6ED0B3F5A9
:10541000003F61D0002B5AD001263546236813F493
:10542000802F0CD0D4F88430B3F5001F76D0B3F5BC
:10543000401F69D0B3F5801F61D00126354623682F
:1054400013F4803F07D0E36C002B70D0B3F5803F9E
:105450007BD001263546236813F0005F7DD1236899
:1054600013F4003F00F08680E36FB3F5807F00F017
:10547000C6807CD9B3F5007F03D0B3F5407F40F000
:10548000BC80002D40F0C180614A536D23F440730D
:10549000E16F0B4353656DE0022104F12400FFF737
:1054A0005BFB054665E72E4686E7022104F12400F2
:1054B000FFF752FB002888D0012686E7022104F17D
:1054C0002400FFF749FB002890D001268EE7002139
:1054D000201DFFF7BBFA05467DB94D4A936D23F4B5
:1054E0004033D4F8A0100B43936597E7022104F1F1
:1054F0002400FFF731FB0546EEE72E468EE7444ACF
:10550000D36A43F40033D3627DB9414A536D23F427
:105510004013D4F884100B43536590E7012104F144
:105520002400FFF719FB0546EEE72E4687E7384AC9
:10553000D36A43F40033D3626DB9354AD36C23F494
:105540008033E16C0B43D36485E70221201DFFF714
:105550007DFA0546F0E72E467DE7022104F124009E
:10556000FFF7FAFA00283FF47AAF012677E7002B1D
:1055700087D00126236813F4801F06D0244A136DB8
:1055800023F00043216F0B431365236813F0805F02
:1055900007D01F4A136923F48043D4F8B4100B4397
:1055A0001361236813F4001F06D0194A136D23F00A
:1055B0008073A16E0B431365236813F0804F09D0ED
:1055C000134B1A6922F400421A611A69D4F8B81010
:1055D0000A431A612368002B1CDB236813F4000FB5
:1055E00007D00B4A536D23F44003D4F888100B43C3
:1055F000536506B101263046F8BD0126BAE7044AD4
:10560000D36A43F40033D3623BE72E46B2E700BFD0
:1056100000440258034AD36C23F04053216D0B43DE
:10562000D364DAE70044025808B5FFF7C9F9054B1F
:105630001B6AC3F30213044AD35C03F01F03D84070
:1056400008BD00BF0044025894F5000810B5774A21
:10565000916A946AC4F3053ED36AC3F3001CD36B0A
:10566000C3F3CC030CFB03F314F47C3F00F0D880AD
:1056700001F0030107EE903AF8EE677A012965D050
:10568000022900F0B080E1B107EE10EAB8EE477AE7
:105690009FED676AC6EE076A644B9B6BC3F3080312
:1056A00007EE103AB8EE477A9FED626A67EE867AA7
:1056B00077EE277AB7EE007A77EE877A66EEA76AFA
:1056C00060E0136813F0200F23D011461268C2F374
:1056D000C102594BD34007EE103AB8EE477A06EEB6
:1056E00090EAB8EE666AC7EE066A8B6BC3F30803EE
:1056F00007EE103AB8EE477A9FED4E6A67EE867A6B
:1057000077EE277AB7EE007A77EE877A66EEA76AA9
:1057100038E007EE10EAB8EE477A9FED486AC6EE29
:10572000076A424B9B6BC3F3080307EE103AB8EECF
:10573000477A9FED406A67EE867A77EE277AB7EE72
:10574000007A77EE877A66EEA76A1BE007EE10EA2A
:10575000B8EE477A9FED366AC6EE076A334B9B6B0D
:10576000C3F3080307EE103AB8EE477A9FED316AAB
:1057700067EE867A77EE277AB7EE007A77EE877A49
:1057800066EEA76A294A936BC3F3462307EE103AE5
:10579000B8EE477AB7EE006A37EE067AC6EE877A39
:1057A000FCEEE77AC0ED007A936BC3F3064307EE95
:1057B000103AB8EE477A37EE067AC6EE877AFCEEF4
:1057C000E77AC0ED017A936BC3F3066307EE903A74
:1057D000F8EE677A77EE867A86EEA77ABCEEC77A1D
:1057E00080ED027A10BD07EE10EAB8EE477A9FED21
:1057F000146AC6EE076A0D4B9B6BC3F3080307EEF2
:10580000103AB8EE477A9FED0B6A67EE867A77EE2C
:10581000277AB7EE007A77EE877A66EEA76AB1E765
:105820000023036043608360DCE700BF004402584C
:105830000024744A000000390090D0030024744C06
:105840000024744B10B5774A916A946AC4F3055EDC
:10585000D36AC3F3002C536CC3F3CC030CFB03F3E8
:1058600014F07C7F00F0D88001F0030107EE903A3D
:10587000F8EE677A012965D0022900F0B080E1B125
:1058800007EE10EAB8EE477A9FED676AC6EE076A40
:10589000644B1B6CC3F3080307EE103AB8EE477A6B
:1058A0009FED626A67EE867A77EE277AB7EE007A26
:1058B00077EE877A66EEA76A60E0136813F0200F30
:1058C00023D011461268C2F3C102594BD34007EEF0
:1058D000103AB8EE477A06EE90EAB8EE666AC7EE7E
:1058E000066A0B6CC3F3080307EE103AB8EE477A6A
:1058F0009FED4E6A67EE867A77EE277AB7EE007AEA
:1059000077EE877A66EEA76A38E007EE10EAB8EE1F
:10591000477A9FED486AC6EE076A424B1B6CC3F399
:10592000080307EE103AB8EE477A9FED406A67EE3B
:10593000867A77EE277AB7EE007A77EE877A66EE88
:10594000A76A1BE007EE10EAB8EE477A9FED366AC9
:10595000C6EE076A334B1B6CC3F3080307EE103A1D
:10596000B8EE477A9FED316A67EE867A77EE277A4E
:10597000B7EE007A77EE877A66EEA76A294A136C4B
:10598000C3F3462307EE103AB8EE477AB7EE006A43
:1059900037EE067AC6EE877AFCEEE77AC0ED007A3B
:1059A000136CC3F3064307EE103AB8EE477A37EEAE
:1059B000067AC6EE877AFCEEE77AC0ED017A136CC0
:1059C000C3F3066307EE903AF8EE677A77EE867ACD
:1059D00086EEA77ABCEEC77A80ED027A10BD07EE9C
:1059E00010EAB8EE477A9FED146AC6EE076A0D4BCF
:1059F0001B6CC3F3080307EE103AB8EE477A9FED2D
:105A00000B6A67EE867A77EE277AB7EE007A77EE42
:105A1000877A66EEA76AB1E700230360436083607C
:105A2000DCE700BF004402580024744A000000393B
:105A30000090D0030024744C0024744B10B5774AB6
:105A4000916A946AC4F3051ED36A03F0010C536B88
:105A5000C3F3CC030CFB03F314F47C7F00F0D88079
:105A600001F0030107EE903AF8EE677A012965D05C
:105A7000022900F0B080E1B107EE10EAB8EE477AF3
:105A80009FED676AC6EE076A644B1B6BC3F308039E
:105A900007EE103AB8EE477A9FED626A67EE867AB3
:105AA00077EE277AB7EE007A77EE877A66EEA76A06
:105AB00060E0136813F0200F23D011461268C2F380
:105AC000C102594BD34007EE103AB8EE477A06EEC2
:105AD00090EAB8EE666AC7EE066A0B6BC3F308037A
