:020000040800F2
:1000000000000220099E00083B2C00083D2C00083F
:100010003F2C0008412C0008432C00080000000081
:10002000000000000000000000000000452C000857
:10003000472C000800000000492C00084B2C000849
:10004000599E0008599E0008599E0008599E0008B4
:10005000599E0008599E0008599E0008599E0008A4
:10006000599E0008599E0008599E0008599E000894
:10007000599E0008552C0008652C0008752C0008B6
:10008000599E0008599E0008852C0008599E0008BA
:10009000599E0008599E0008599E0008599E000864
:1000A000599E00089D2C0008599E0008599E000882
:1000B000599E0008599E0008599E0008599E000844
:1000C000599E0008599E0008599E0008599E000834
:1000D000599E0008599E0008599E0008599E000824
:1000E000599E0008599E000800000000599E000813
:1000F000599E0008599E0008599E0008599E000804
:10010000599E0008599E0008599E0008599E0008F3
:10011000599E0008599E0008599E0008599E0008E3
:10012000599E0008599E0008599E0008599E0008D3
:10013000599E0008599E0008599E0008599E0008C3
:1001400000000000000000000000000000000000AF
:10015000599E0008599E0008599E0008599E0008A3
:10016000599E0008599E0008599E0008599E000893
:10017000599E0008599E0008599E00080000000082
:10018000599E0008599E0008599E0008599E000873
:10019000599E0008599E0008599E0008599E000863
:1001A000599E0008599E0008599E0008599E000853
:1001B000599E0008599E0008599E0008599E000843
:1001C000599E0008599E0008599E0008599E000833
:1001D000599E0008599E0008599E0008599E000823
:1001E000599E0008599E0008599E0008599E000813
:1001F000599E0008599E0008599E0008599E000803
:10020000599E0008599E0008599E0008599E0008F2
:10021000599E0008599E0008599E0008599E0008E2
:10022000599E0008599E0008599E000800000000D1
:10023000599E0008599E000800000000599E0008C1
:10024000599E0008599E0008599E0008599E0008B2
:10025000599E0008599E0008599E0008599E0008A2
:10026000599E0008599E0008599E0008599E000892
:10027000599E0008599E0008599E00080000000081
:10028000599E0008599E0008599E00080000000071
:0802900000000000599E000867
:1002980010B5054C237833B9044B13B10448AFF3B8
:1002A80000800123237010BD100000200000000012
:1002B800B49E000808B5034B1BB103490348AFF3CC
:1002C800008008BD0000000014000020B49E000853
:1002D80053B94AB9002908BF00281CBF4FF0FF31A5
:1002E8004FF0FF3000F074B9ADF1080C6DE904CEA1
:1002F80000F006F8DDF804E0DDE9022304B07047F9
:100308002DE9F047089D04468E46002B4DD18A42C0
:10031800944669D9B2FA82F252B101FA02F3C2F1F3
:10032800200120FA01F10CFA02FC41EA030E944084
:100338004FEA1C48210CBEFBF8F61FFA8CF708FBA5
:1003480016E341EA034306FB07F199420AD91CEB7D
:10035800030306F1FF3080F01F81994240F21C81AF
:10036800023E63445B1AA4B2B3FBF8F008FB1033F7
:1003780044EA034400FB07F7A7420AD91CEB04042C
:1003880000F1FF3380F00A81A74240F207816444FC
:10039800023840EA0640E41B00261DB1D440002381
:1003A800C5E900433146BDE8F0878B4209D9002DE5
:1003B80000F0EF800026C5E9000130463146BDE86F
:1003C800F087B3FA83F6002E4AD18B4202D38242D9
:1003D80000F2F980841A61EB030301209E46002D88
:1003E800E0D0C5E9004EDDE702B9FFDEB2FA82F2DD
:1003F800002A40F09280A1EB0C014FEA1C471FFA3B
:100408008CFE0126200CB1FBF7F307FB131140EA21
:1004180001410EFB03F0884208D91CEB010103F1EE
:10042800FF3802D2884200F2CB804346091AA4B2B0
:10043800B1FBF7F007FB101144EA01440EFB00FE84
:10044800A64508D91CEB040400F1FF3102D2A645E9
:1004580000F2BB800846A4EB0E0440EA03409CE788
:10046800C6F12007B34022FA07FC4CEA030C20FA35
:1004780007F401FA06F31C43F9404FEA1C4900FA55
:1004880006F3B1FBF9F8200C1FFA8CFE09FB1811D2
:1004980040EA014108FB0EF0884202FA06F20BD945
:1004A8001CEB010108F1FF3A80F08880884240F295
:1004B8008580A8F102086144091AA4B2B1FBF9F0D9
:1004C80009FB101144EA014100FB0EFE8E4508D9D4
:1004D8001CEB010100F1FF346CD28E456AD9023859
:1004E800614440EA0840A0FB0294A1EB0E01A1423E
:1004F800C846A64656D353D05DB1B3EB080261EBAC
:100508000E0101FA07F722FA06F3F1401F43C5E985
:10051800007100263146BDE8F087C2F12003D840BB
:100528000CFA02FC21FA03F3914001434FEA1C47FD
:100538001FFA8CFEB3FBF7F007FB10360B0C43EAEF
:10054800064300FB0EF69E4204FA02F408D91CEB9F
:10055800030300F1FF382FD29E422DD9023863449D
:100568009B1B89B2B3FBF7F607FB163341EA03413D
:1005780006FB0EF38B4208D91CEB010106F1FF388C
:1005880016D28B4214D9023E6144C91A46EA004683
:1005980038E72E46284605E70646E3E61846F8E615
:1005A8004B45A9D2B9EB020864EB0C0E0138A3E75E
:1005B8004646EAE7204694E74046D1E7D0467BE73F
:1005C800023B614432E7304609E76444023842E7B7
:1005D800704700BF09280CD8064B5A6922F07F02E1
:1005E8005A615A69044951F8201001F07F010A4301
:1005F8005A61704700240258CC9E000872B6FEE784
:1006080000B59DB04C22002109A809F047FC202222
:10061800002101A809F042FC022006F02DFB00236E
:1006280000932B4BDA6A22F00102DA62DB6A03F0EC
:1006380001030093274A936923F4404343F480431A
:100648009361936903F440430093009B214B9B699A
:1006580013F4005FFAD0204A936A23F0030343F0AF
:1006680002039362292309934FF480330A930122EA
:100678000E920F9202231293139314920922159249
:100688001693179318930C2219921A934FF44063F8
:100698001B9309A803F098F9A8B93F2301930323F2
:1006A80002930023039304934023059306934FF486
:1006B800806207920893012101A803F0A3FD20B9E5
:1006C8001DB05DF804FBFFF799FFFFF797FF00BF28
:1006D80000040058004802580044025800B5B1B060
:1006E800BC22002101A809F0D9FB4FF40023019393
:1006F80001230293092303930423049302230593FC
:100708000693C0230793202308934FF4406309936B
:1007180001A804F013F810B931B05DF804FBFFF735
:100728006DFF000038B5634B5B6913F4003F13D1CC
:10073800BFF34F8FBFF36F8F5E4B0022C3F8502279
:10074800BFF34F8FBFF36F8F5A6942F400325A617B
:10075800BFF34F8FBFF36F8F564B5B6913F4803F26
:1007680027D1544B0022C3F88420BFF34F8FD3F80E
:100778008040C4F34E3000E01846C4F3C90243F683
:10078800E07303EA401343EA82734A49C1F86032CE
:100798001346013A002BF2D1431E0028ECD1BFF3D7
:1007A8004F8F4B6943F480334B61BFF34F8FBFF3D7
:1007B8006F8F06F01DFBFFF723FFFFF78FFF00F099
:1007C80081F800F095FC00F0C3F900F015FA00F08C
:1007D80059FA00F0E1FB00F039FD00F013FE00F0DB
:1007E800D3FE00F0FDFE00F027FF01F023F801F032
:1007F80057F801F089F801F0BBF801F0EDF801F0C5
:100808001FF901F02DFB01F06BFB01F095FB01F0E6
:10081800BFFB01F0E9FB01F053FD01F08DFD01F094
:10082800C5FD01F0FBFD01F04DFE01F07DFE01F07C
:10083800A3FE01F0C9FE01F0FBFE01F047FF02F044
:10084800BDF901F05BFF01F097FF01F0ADFF02F089
:10085800EFF91948026800235362184C2268536262
:1008680008F00AFD204608F007FD23685A6A144D6F
:10087800A5FB0235ED0805EB85056B00D51AEDB231
:100888002846FFF7A7FE06E02046FFF7A3FE254609
:100898000A2006F0EDFA094B1B685A6A0848A0FBC3
:1008A8000230C00800EB80004300D01AC4B2A54251
:1008B800EAD1EDE700ED00E0580C0020A40C002080
:1008C800CDCCCCCC2DE9F04F91B000240B940C94F6
:1008D8000D940E940F94934BD3F8E02042F4807259
:1008E800C3F8E020D3F8E02002F480720092009A66
:1008F800D3F8E02042F48062C3F8E020D3F8E02087
:1009080002F480620192019AD3F8E02042F040029A
:10091800C3F8E020D3F8E02002F040020292029AE5
:10092800D3F8E02042F00802C3F8E020D3F8E02032
:1009380002F008020392039AD3F8E02042F0010281
:10094800C3F8E020D3F8E02002F001020492049AF0
:10095800D3F8E02042F01002C3F8E020D3F8E020FA
:1009680002F010020592059AD3F8E02042F0020244
:10097800C3F8E020D3F8E02002F002020692069ABB
:10098800D3F8E02042F40072C3F8E020D3F8E02066
:1009980002F400720792079AD3F8E02042F080022E
:1009A800C3F8E020D3F8E02002F080020892089A09
:1009B800D3F8E02042F00402C3F8E020D3F8E020A6
:1009C80002F004020992099AD3F8E02042F02002CA
:1009D800C3F8E020D3F8E03003F020030A930A9B21
:1009E800514E22464FF29051304605F097FADFF803
:1009F80050B12246FC21584605F090FADFF844A190
:100A0800224640F60801504605F088FADFF838918A
:100A180022464FF40041484605F080FADFF82C8161
:100A280022460421404605F079FA404F224647F213
:100A3800FF01384605F072FA224608213C4805F0C5
:100A48006DFA4FF290530B9301250C950D940E946B
:100A58000BA9304605F064F9FC230B930C950D9413
:100A68000E940BA9584605F05BF94FF4004BCDF8EE
:100A78002CB0304B0C930D940BA9384605F050F967
:100A880040F608030B930C950D940E940BA9504651
:100A980005F046F9CDF82CB00C950D940E940BA9E1
:100AA800484605F03DF904230B930C950D940E94DC
:100AB8000BA9404605F034F947F2FF030B930C9558
:100AC8000D940E940BA9384605F02AF94FF4E0531B
:100AD8000B9302230C930D940E940A230F930BA9E6
:100AE800154805F01DF94FF400530B930C940D9520
:100AF8000BA9124805F014F94FF400630B930D4B42
:100B08000C930D940BA9304605F00AF908230B93B2
:100B18000C950D940E940BA9054805F001F911B038
:100B2800BDE8F08F00440258002002580024025803
:100B3800001802580000111100000258000802585D
:100B480000280258000C0258001C025800100258D5
:100B580000B58BB000230793089309930093019382
:100B6800029303930493059306932048204A026056
:100B780043608360C36004220261037543750122E8
:100B8800826103774FF4A46141624FF4806181620E
:100B9800C2620363436380F8383002F02BFDE0B98A
:100BA8000023079307A9114802F05CFEC0B9114B56
:100BB8000093062301930023029340F2FF720392ED
:100BC8000422049205938DF819306946074802F00B
:100BD800EBF940B90BB05DF804FBFFF70FFDDFE759
:100BE800FFF70CFDE3E7FFF709FDF3E7300000200E
:100BF800002002400200300400B589B000230193B0
:100C080002930393049305930693079319481A4A8A
:100C1800026043608360C360042202610375437508
:100C280001228261037743628362C3620363436381
:100C380080F8383002F0DEFCA8B9104B0193062387
:100C48000293002303930E4A04920422059206930A
:100C58008DF81D300DEB0201064802F0A5F928B900
:100C680009B05DF804FBFFF7C9FCE6E7FFF7C6FC2F
:100C7800F6E700BF94000020002102400200300483
:100C88000000FF4700B589B0002301930293039346
:100C980004930593069307931B481C4A026043601C
:100CA8008360C36004220261037543750122826177
:100CB80003774FF4986242624FF480628262C362A3
:100CC8000363436380F8383002F094FCA8B9104BF2
:100CD800019306230293002303930E4A04920422ED
:100CE800059206938DF81D300DEB0201064802F0BF
:100CF8005BF928B909B05DF804FBFFF77FFCE6E76C
:100D0800FFF77CFCF6E700BFF800002000600258FF
:100D1800020030040000FF4730B591B000230B9368
:100D28000C930D930E930F930368914A934208D046
:100D3800904A93427ED0904A934200F0D78011B0F7
:100D480030BD04468D4A136801331360012B60D00F
:100D58008B4BD3F8E02042F00402C3F8E020D3F82C
:100D6800E02002F004020192019AD3F8E02042F058
:100D78000102C3F8E020D3F8E02002F00102029259
:100D8800029AD3F8E02042F00202C3F8E020D3F838
:100D9800E03003F002030393039B0C230B9303251A
:100DA8000C950BA9774804F0BBFF0B950C95002513
:100DB8000D950BA9744804F0B3FF4FF080710846F5
:100DC80006F070F84FF00071084606F06BF86F48AF
:100DD8006F4B0360092343608560C5604FF48063EF
:100DE80003614FF4805343614FF480438361C561CD
:100DF8000562456205F0D2F9C8B9644BE3649C63A7
:100E080000221146122005F073FF122005F0A6FFFC
:100E180095E75B4BD3F8D82042F02002C3F8D820DE
:100E2800D3F8D83003F020030093009B90E7FFF736
:100E3800E5FBE2E7514A136801331360012B47D001
:100E48004F4BD3F8E02042F00402C3F8E020D3F877
:100E5800E02002F004020592059AD3F8E02042F05F
:100E68000102C3F8E020D3F8E02002F00102069264
:100E7800069AD3F8E02042F00202C3F8E020D3F843
:100E8800E03003F002030793079B0C230B93032422
:100E98000C940BA93B4804F043FF0B940C940024DA
:100EA8000D940BA9384804F03BFF4FF080710846B9
:100EB80005F0F8FF4FF00071084605F0F3FF2246F1
:100EC8002146122005F014FF122005F047FF36E7EF
:100ED8002B4BD3F8D82042F02002C3F8D820D3F8FF
:100EE800D83003F020030493049BA9E7244BD3F8DC
:100EF800E02042F08072C3F8E020D3F8E02002F04E
:100F080080720892089AD3F8E02042F02002C3F8D1
:100F1800E020D3F8E02002F020020992099AD3F8E1
:100F2800E02042F00402C3F8E020D3F8E03003F0F8
:100F380004030A930A9B4FF480630B9303240C94D5
:100F48000BA9144804F0ECFE04230B930C94002323
:100F58000D930BA90B4804F0E3FE4FF0806108469F
:100F680005F0A0FF4FF00061084605F09BFFE6E69C
:100F78000020024000210240006002582C0000209E
:100F88000044025800080258000402585C0100207E
:100F9800700002400014025800B58BB024220021D2
:100FA80001A808F07BFF1248124B036006F03CF8DA
:100FB800A8B9002201920623029303920223049304
:100FC800059201A90A4806F041F858B9102201A96A
:100FD800074806F03BF840B90BB05DF804FBFFF793
:100FE8000DFBE6E7FFF70AFBF0E7FFF707FBF3E780
:100FF800D40100200074004010B588B0002303938A
:1010080004930593069307930268324B9A4201D0E2
:1010180008B010BD0446304BD3F8E82042F0005227
:10102800C3F8E820D3F8E82002F000520192019AB0
:10103800D3F8E02042F00102C3F8E020D3F8E03012
:1010480003F001030293029B3023039303230493C9
:1010580003A9224804F064FE2148224B036043237D
:101068004360402383600023C3604FF480620261C1
:101078004FF4805242614FF480428261C36103623F
:10108800436205F08BF8F0B9154BA3609C631648D2
:10109800164B036044234360402383600023C360EE
:1010A8004FF4806202614FF4805242614FF48042F3
:1010B8008261C3610362436205F070F830B90A4B7C
:1010C800E3609C63A4E7FFF799FADDE7FFF796FA78
:1010D800F5E700BF007400400044025800000258C1
:1010E800E801002040000240600200205800024051
:1010F80000B583B0134BD3F8D82042F00102C3F8EF
:10110800D820D3F8D83003F001030193019B0022C3
:1011180011460D2005F0ECFD0D2005F01FFE002204
:1011280011460E2005F0E4FD0E2005F017FE002202
:1011380011460F2005F0DCFD0F2005F00FFE03B06F
:101148005DF804FB00440258F0B5B7B000233193B2
:101158003293339334933593344B1B680BB137B0C8
:10116800F0BD324B01221A60BC22002102A808F00F
:1011780095FE4FF08073029302A803F0DFFA00286F
:1011880050D12B4BD3F8D42042F48052C3F8D4204A
:10119800D3F8D43003F480530193019B48F23713FA
:1011A80031930227329700263396032534950C2471
:1011B800359431A91F4804F0B3FD4CF20373319301
:1011C800329733963495359431A91B4804F0A8FD1D
:1011D8004FF63F033193329733963495359431A9BE
:1011E800164804F09DFD01233193329733963495C8
:1011F800359431A9124804F093FD3194329733960F
:101208003495359431A90F4804F08AFD4FF6807360
:101218003193329733963495359431A90A4804F0BE
:101228007FFD9CE7FFF7EAF9ABE700BFD802002093
:101238000044025800180258000C025800140258C2
:1012480000080258001C02580010025800B589B066
:101258000023019302930393049305930693079342
:101268001048114A0260436083600822C26010225D
:1012780002614021416180218161C361036243624F
:101288008362019202920392049205920692079257
:1012980001A906F017F810B909B05DF804FBFFF7CB
:1012A800ADF9F9E7DC0200204041005208B5FFF72C
:1012B8004BFF08BD10B5B6B00446002131913291FC
:1012C800339134913591BC2202A808F0E7FD2268D9
:1012D8001A4B9A4201D036B010BD4FF0805302939A
:1012E80002A803F02BFA28BB154BD3F8F02042F0E4
:1012F8000052C3F8F020D3F8F02002F00052009218
:10130800009AD3F8E02042F00802C3F8E020D3F8AE
:10131800E03003F008030193019B1023319302236B
:101328003293002233923492359331A9054804F060
:10133800F7FCD0E7FFF762F9D6E700BF0074014079
:1013480000440258000C0258F0B589B000230393FA
:1013580004930593069307930268254B9A4201D09C
:1013680009B0F0BD234BD3F8E02042F01002C3F8D7
:10137800E020D3F8E02002F010020092009AD3F89F
:10138800E02042F00402C3F8E020D3F8E02002F0A5
:1013980004020192019AD3F8E02042F04002C3F817
:1013A800E020D3F8E03003F040030293029B0224CC
:1013B8000394049406940325079503A90E4804F0A2
:1013C800AFFCC027039704940026059606950123D1
:1013D800079303A9094804F0A3FC0397049405960E
:1013E8000695079403A9064804F09AFCB8E700BFDD
:1013F80000740140004402580010025800080258C6
:101408000018025810B5A6B00024229423942494FE
:1014180025941E941F94209421945422214609A8AF
:1014280008F03CFD2022214601A808F037FD544869
:10143800544B03604460846006F022F900287ED192
:1014480000214F4806F06CFA00287BD10023229334
:10145800022223922493259322AA0421484806F0C5
:1014680097F9002871D1464C01220421204606F044
:101478007DFA4FF6FD731E9300211F9105232093DB
:10148800082321931EAA204606F068F900285FD198
:10149800002109910A910B910C9101230D930E9152
:1014A8000F91109111911291139114911591169118
:1014B8001791189119911A911B911C911D9109AAC4
:1014C8002F4806F0A2FA002845D100231A9309AA4A
:1014D80004212B4806F099FA00283FD100210191F8
:1014E800029103910491059106910791089101AB2E
:1014F8000122234806F0C1FA98BB01AB4FF4807271
:1015080004211F4806F0B9FA70BB01AB0222002182
:101518001B4806F0B2FA50BB01AB4FF4007204212D
:10152800174806F0AAFA28BB1EAA0421144806F098
:1015380015F910BB1248FFF707FF26B010BDFFF7DB
:101548005DF87DE7FFF75AF880E7FFF757F88AE775
:10155800FFF754F89CE7FFF751F8B6E7FFF74EF8A6
:10156800BCE7FFF74BF8C8E7FFF748F8CDE7FFF708
:1015780045F8D1E7FFF742F8D6E7FFF73FF8D9E794
:10158800100300200074014008B51248124B036094
:10159800124B4360002383600122C26003614361F0
:1015A8008361C361036205F087FC50B900210948D3
:1015B80005F0E0FC40B90021064805F009FD30B906
:1015C80008BDFFF71BF8F1E7FFF718F8F3E7FFF797
:1015D80015F8F5E7EC03002000580040CE9F900076
:1015E80008B51248124B0360124B43600023836016
:1015F8000122C260036143618361C361036205F034
:101608005BFC50B90021094805F0B4FC40B9002141
:10161800064805F0DDFC30B908BDFEF7EFFFF1E73D
:10162800FEF7ECFFF3E7FEF7E9FFF5E738040020E3
:10163800005C0040CE9F900008B51248124B036032
:10164800124B4360002383600122C260036143613F
:101658008361C361036205F02FFC50B9002109487A
:1016680005F088FC40B90021064805F0B1FC30B906
:1016780008BDFEF7C3FFF1E7FEF7C0FFF3E7FEF78B
:10168800BDFFF5E784040020001C0058CE9F9000A1
:10169800F0B5BDB0044600213791389139913A919F
:1016A8003B91BC2208A808F0F9FB23685B4A9342E7
:1016B80007D05B4A934235D05A4A934264D03DB032
:1016C800F0BD0823089308A803F038F838BB564C37
:1016D800D4F8E03043F08003C4F8E030D4F8E030C8
:1016E80003F080030193019B30233793122338932F
:1016F8000123399300233A9304233B9337A94B489A
:1017080004F00EFBD4F8E83043F48003C4F8E83062
:10171800D4F8E83003F480030293029BCFE7FEF786
:101728006DFFD4E70823089308A803F007F840BB27
:101738003D4CD4F8E03043F08003C4F8E030D4F8EE
:10174800E03003F080030393039B4FF4C073379397
:10175800122338930123399300233A9304233B93AC
:1017680037A9324804F0DCFAD4F8E83043F400032F
:10177800C4F8E830D4F8E83003F400030493049B79
:101788009DE7FEF73BFFD3E71023089308A802F074
:10179800D5FF00283FD1244CD4F8E03043F00203B1
:1017A800C4F8E030D4F8E03003F002030593059B59
:1017B800D4F8E03043F08003C4F8E030D4F8E030E7
:1017C80003F080030693069B40233793122738972C
:1017D8000126399600253A9506233B9337A91448E4
:1017E80004F09EFA4FF480533793389739963A9518
:1017F80004233B9337A90D4804F092FAD4F8F43047
:1018080043F08003C4F8F430D4F8F43003F08003D4
:101818000793079B53E7FEF7F1FEBCE7005800402B
:10182800005C0040001C005800440258001C02588C
:101838000004025808B51748174B0360174B43605C
:1018480000238360C36003610C22426183610362E9
:1018580043628362436606F01EFD70B900210D489D
:1018680006F091FD60B900210A4806F0B1FD50B9B3
:10187800084806F069FD48B908BDFEF7BFFEEDE768
:10188800FEF7BCFEEFE7FEF7B9FEF1E7FEF7B6FE9E
:10189800F2E700BFD0040020000C005824330300F6
:1018A80008B51748174B03604FF4E1334360002332
:1018B8008360C36003610C2242618361C361036278
:1018C8004362836206F0E7FC70B900210C4806F019
:1018D8005AFD60B900210A4806F07AFD50B9084857
:1018E80006F032FD48B908BDFEF788FEEDE7FEF7C1
:1018F80085FEEFE7FEF782FEF1E7FEF77FFEF2E7EF
:10190800F0050020004C004008B51748174B03604D
:101918004FF4E133436000238360C36003610C220A
:1019280042618361C36103624362836206F0B3FC70
:1019380070B900210C4806F026FD60B900210A485C
:1019480006F046FD50B9084806F0FEFC48B908BD47
:10195800FEF754FEEDE7FEF751FEEFE7FEF74EFE09
:10196800F1E7FEF74BFEF2E7800600200078004022
:1019780008B51748174B03604FF4E1334360002361
:101988008360C36003610C2242618361C3610362A7
:101998004362836206F07FFC70B900210C4806F0B0
:1019A800F2FC60B900210A4806F012FD50B9084857
:1019B80006F0CAFC48B908BDFEF720FEEDE7FEF7C1
:1019C8001DFEEFE7FEF71AFEF1E7FEF717FEF2E756
:1019D80010070020007C004008B51748174B03602B
:1019E8004FF4E133436000238360C36003610C223A
:1019F80042618361C36103624362036407F05AF87A
:101A080070B900210C4807F0C4F860B900210A48F1
:101A180007F0E3F850B9084807F09CF848B908BD42
:101A2800FEF7ECFDEDE7FEF7E9FDEFE7FEF7E6FD73
:101A3800F1E7FEF7E3FDF2E7A00700200010014000
:101A480008B51748174B03604FF4E1334360002390
:101A58008360C36003610C2242618361C3610362D6
:101A68004362836206F017FC70B900210C4806F047
:101A78008AFC60B900210A4806F0AAFC50B9084857
:101A880006F062FC48B908BDFEF7B8FDEDE7FEF7C1
:101A9800B5FDEFE7FEF7B2FDF1E7FEF7AFFDF2E7C0
:101AA800600500200044004070B5C2B00446002123
:101AB8003D913E913F9140914191BC220EA808F082
:101AC800EDF92368A64A934210D0A64A934256D00D
:101AD800A54A934200F09C80A44A934200F0C88033
:101AE800A34A934200F00C8142B070BD04230E93C8
:101AF8000EA802F023FE00283ED19E4BD3F8F42016
:101B080042F00802C3F8F420D3F8F42002F00802E7
:101B18000192019AD3F8E02042F00202C3F8E020D3
:101B2800D3F8E02002F002020292029AD3F8E020F1
:101B380042F00102C3F8E020D3F8E03003F00103DB
:101B48000393039B80233D9302253E9500243F94F5
:101B58004094082341933DA9874804F0E1F84FF4E5
:101B680000733D933E953F944094032341933DA9D0
:101B7800824804F0D5F8B7E7FEF740FDBDE7022339
:101B88000E930EA802F0DAFD00283ED1794BD3F867
:101B9800E82042F40022C3F8E820D3F8E82002F451
:101BA80000220492049AD3F8E02042F08002C3F89D
:101BB800E020D3F8E02002F080020592059AD3F8DD
:101BC800E02042F00202C3F8E020D3F8E03003F04E
:101BD80002030693069B4FF480433D9302263E96EC
:101BE80000243F944094082541953DA9644804F099
:101BF80097F84FF400733D933E963F944094419577
:101C08003DA95D4804F08CF86EE7FEF7F7FCBDE7E8
:101C180002230E930EA802F091FD30BB554BD3F86A
:101C2800E82042F08042C3F8E820D3F8E82002F028
:101C380080420792079AD3F8E02042F02002C3F8C6
:101C4800E020D3F8E03003F020030893089BC0237A
:101C58003D9302233E9300233F93409307234193F0
:101C68003DA9484804F05CF83EE7FEF7C7FCD5E715
:101C780002230E930EA802F061FD00283DD13D4BD2
:101C8800D3F8E82042F00042C3F8E820D3F8E8206F
:101C980002F000420992099AD3F8E02042F01002BB
:101CA800C3F8E020D3F8E02002F010020A920A9A62
:101CB800D3F8E02042F40072C3F8E020D3F8E03013
:101CC80003F400730B930B9B01233D9302263E966E
:101CD80000243F944094082541953DA92A4804F0E2
:101CE8001FF84FF480733D933E963F94409441957E
:101CF8003DA9264804F014F8F6E6FEF77FFCBEE797
:101D080002230E930EA802F019FD30BB194BD3F82D
:101D1800E82042F40032C3F8E820D3F8E82002F4BF
:101D280000320C920C9AD3F8E02042F00802C3F873
:101D3800E020D3F8E03003F008030D930D9B6023F7
:101D48003D9302233E9300233F93409307234193FF
:101D58003DA90F4803F0E4FFC6E6FEF74FFCD5E7C0
:101D6800000C0058004C004000780040007C004007
:101D78000044004000440258000402580000025881
:101D8800001C02580014025800100258002402587F
:101D9800000C025830B5B9B0044600213391349193
:101DA800359136913791BC2204A808F077F822685B
:101DB800274B9A4201D039B030BD0123049304A8BF
:101DC80002F0BCFC00283FD1224BD3F8F02042F0AF
:101DD8001002C3F8F020D3F8F02002F010020192AC
:101DE800019AD3F8E02042F00102C3F8E020D3F8CA
:101DF800E02002F001020292029AD3F8E02042F0B9
:101E08000202C3F8E020D3F8E03003F002030393A2
:101E1800039B4FF480733393022534950024359443
:101E280036940723379333A90B4803F079FF4FF40F
:101E3800404333933495359436940423379333A928
:101E4800064803F06DFFB6E7FEF7D8FBBCE700BF16
:101E580000100140004402580000025800040258D3
:101E680008B50A480A4B0360002343607F2282605A
:101E7800FF22C26003618361C361436106F032FFE0
:101E880000B908BDFEF7BAFBFBE700BF0008002059
:101E98000040005810B5B0B00446BC22002101A88B
:101EA80007F0FCFF22680C4B9A4201D030B010BDFD
:101EB8004FF4800301934FF400732D9301A802F0AF
:101EC8003DFC28B9054A136F43F400431367EDE757
:101ED800FEF794FBF6E700BF0040005800440258A4
:101EE80008B51348134B03604FF480034360002385
:101EF80083600322C260036143614FF00052826134
:101F08004FF08042C261036243628362C3624263EC
:101F18008363C363036443648364C3640365436581
:101F2800836506F033FF00B908BDFEF767FBFBE7E2
:101F3800240800200030014008B51348134B036003
:101F48004FF480034360002383600322C26003616F
:101F580043614FF0005282614FF08042C2610362D8
:101F680043628362C36242638363C36303644364FB
:101F78008364C36403654365836506F007FF00B99E
:101F880008BDFEF73BFBFBE7AC080020003800402B
:101F980008B51348134B03604FF4800343600023D4
:101FA80083600322C260036143614FF080628261F3
:101FB800C361036243628362C3624FF0804242633B
:101FC8008363C363036443648364C36403654365D1
:101FD800836506F0DBFE00B908BDFEF70FFBFBE7E3
:101FE800340900200050014008B51348134B036022
:101FF8004FF480034360002383600322C2600361BF
:1020080043614FF080628261C3610362436283620D
:10201800C3624FF0804242638363C36303644364D3
:102028008364C36403654365836506F0AFFE00B946
:1020380008BDFEF7E3FAFBE7BC09002000140058CE
:1020480070B5C0B0044600213B913C913D913E9152
:102058003F91BC220CA807F021FF23688D4A9342C8
:102068000BD08D4A934251D08C4A93427FD08C4AF0
:10207800934200F0DC8040B070BD4FF480530C9365
:102088000CA802F05BFB00283DD1864BD3F8F0206A
:1020980042F48052C3F8F020D3F8F02002F48052C2
:1020A8000192019AD3F8E02042F04002C3F8E02000
:1020B800D3F8E02002F040020292029AD3F8E0201E
:1020C80042F00802C3F8E020D3F8E03003F0080338
:1020D8000393039B4FF460633B9302263C960024D2
:1020E8003D943E9405253F953BA96F4803F018FEA3
:1020F80080233B933C963D943E943F953BA96B4887
:1021080003F00EFEB7E7FEF779FABEE74FF4805307
:102118000C930CA802F012FB30BB624BD3F8E820FA
:1021280042F48042C3F8E820D3F8E82002F4804261
:102138000492049AD3F8E02042F48072C3F8E020B5
:10214800D3F8E03003F480730593059B0F233B938A
:1021580002233C9300233D933E9305233F933BA9E1
:10216800534803F0DDFD86E7FEF748FAD5E74FF45C
:1021780000530C930CA802F0E1FA002854D1494B03
:10218800D3F8F02042F48012C3F8F020D3F8F020FE
:1021980002F480120692069AD3F8E02042F4806294
:1021A800C3F8E020D3F8E02002F480620792079A8F
:1021B800D3F8E02042F02002C3F8E020D3F8E02072
:1021C80002F020020892089AD3F8E02042F4007244
:1021D800C3F8E020D3F8E03003F400730993099BB7
:1021E80001233B9302263C9600243D943E9405250A
:1021F8003F953BA92F4803F093FD4FF480733B9321
:102208003C963D943E943F953BA92B4803F088FDAE
:102218004FF480633B933C963D943E943F953BA995
:10222800264803F07DFD26E7FEF7E8F9A7E74FF417
:1022380080430C930CA802F081FA38BB194BD3F8F1
:10224800F42042F02002C3F8F420D3F8F42002F07E
:1022580020020A920A9AD3F8E02042F04002C3F81A
:10226800E020D3F8E03003F040030B930B9B4FF4CE
:10227800E0433B9302233C9300233D933E93052385
:102288003F933BA9084803F04BFDF4E6FEF7B6F987
:10229800D4E700BF00300140003800400050014042
:1022A800001400580044025800180258000C025844
:1022B800002002580028025800140258002402582E
:1022C80000B589B0002304930593069307930193FF
:1022D800029303931648174A026040F2572242605D
:1022E80083600922C26003614361836107F05AF980
:1022F800A0B94FF48053049304A90D4807F0CCFB10
:1023080078B92023019300230293039301A9084875
:1023180007F0BCFC40B909B05DF804FBFEF76EF9A4
:10232800E7E7FEF76BF9ECE7FEF768F9F3E700BFBC
:10233800440A00200000014000B589B0002304933E
:1023480005930693079301930293039316484FF05E
:102358008042026041F64B524260836042F20F7243
:10236800C2600361836107F01DF998B94FF4805387
:10237800049304A90C4807F08FFB70B9202301933C
:102388000023039301A9084807F080FC40B909B06D
:102398005DF804FBFEF732F9E8E7FEF72FF9EDE701
:1023A800FEF72CF9F3E700BF580C002000B589B000
:1023B80000230393049305930693079300930193D3
:1023C80002931448144A0260436083600922C26081
:1023D8000361836107F0E6F898B907230393102394
:1023E800049303A90B4807F027FC68B9002300935E
:1023F80002936946074807F049FC40B909B05DF8FF
:1024080004FBFEF7FBF8E8E7FEF7F8F8EEE7FEF75F
:10241800F5F8F3E7A40C00200004004000B591B0E3
:102428002422002107A807F039FD0023049305930F
:10243800069300930193029303932048204A026075
:10244800436083604FF6FF72C2600361836107F0E7
:1024580009F930BB012207920023089309920A93D5
:102468000B930C930D920E930F9307A9134807F043
:1024780029F9C8B900230493069304A90F4807F063
:1024880005FCA0B900230093012201920293039353
:1024980008226946094807F097FA58B911B05DF85B
:1024A80004FBFEF7ABF8D5E7FEF7A8F8E2E7FEF77E
:1024B800A5F8E7E7FEF7A2F8F0E700BFF00C002068
:1024C8000008004000B58DB02422002103A807F0C1
:1024D800E5FC00230093019302931148114A02601E
:1024E800436083604FF0FF32C26003618361012360
:1024F80003930593099303A907F0E4F850B900235F
:10250800009302936946064807F0C0FB28B90DB04E
:102518005DF804FBFEF772F8F1E7FEF76FF8F6E7EF
:102528003C0D0020000C004000B585B0002301934D
:10253800029303930E480F4A0260436083604FF68C
:10254800FF72C260836107F02DF850B90023019330
:10255800039301A9064807F099FB28B905B05DF86F
:1025680004FBFEF74BF8F1E7FEF748F8F6E700BF83
:10257800880D00200010004000B585B000230193AD
:10258800029303930E480F4A0260436083604FF63C
:10259800FF72C260836107F005F850B90023019308
:1025A800039301A9064807F071FB28B905B05DF847
:1025B80004FBFEF723F8F1E7FEF720F8F6E700BF83
:1025C800D40D00200014004000B58DB02422002155
:1025D80003A807F063FC00230093019302931248B9
:1025E800124A0260436083604FF6FF72C260036163
:1025F80043618361012303930593099303A907F0BA
:1026080061F858B90023009301930293694606487C
:1026180007F03CFB28B90DB05DF804FBFDF7EEFFB1
:10262800F0E7FDF7EBFFF6E7200E0020000401407D
:1026380000B58BB00023059306930793089309937D
:1026480001930293039304931E481F4A0260436058
:1026580083604FF6FF72C2600361836107F002F87E
:1026680020BB042305935023069300230793089364
:10267800099305A9134807F0DFFAD0B9002201929F
:10268800012302930392049201A90E4807F09CF9D2
:1026980090B902230193029304220DEB0201094829
:1026A80007F092F958B90BB05DF804FBFDF7A6FFE7
:1026B800D7E7FDF7A3FFE1E7FDF7A0FFE9E7FDF79F
:1026C8009DFFF0E7900A00200018004008B509486F
:1026D800094B03600023436083604FF6FF72C260BA
:1026E8000361836106F05EFF00B908BDFDF786FF50
:1026F800FBE700BFDC0A0020001C004000B589B0E1
:10270800002305930693079301930293039304937D
:102718001748184A0260436083604FF6FF72C26030
:1027280003614361836106F09DFFB8B900230593F7
:10273800079305A90E4807F0A9FA90B90023019359
:10274800012202920393049304220DEB020108482C
:1027580007F03AF940B909B05DF804FBFDF74EFF00
:10276800E4E7FDF74BFFE9E7FDF748FFF3E700BFB4
:10277800740B00200040014008B50948094B03606C
:102788000023436083604FF6FF72C26003614361B8
:10279800836106F007FF00B908BDFDF72FFFFBE7CF
:1027A800C00B00200044014008B50948094B0360EC
:1027B8000023436083604FF6FF72C2600361436188
:1027C800836106F0EFFE00B908BDFDF717FFFBE7D0
:1027D8000C0C00200048014000B58BB00368514A3A
:1027E800934225D0B3F1804F38D04F4A934245D019
:1027F8004E4A934250D04E4A93425BD04D4A934240
:1028080066D04D4A934271D04C4A93427CD04C4A90
:10281800934230D14B4BD3F8F02042F48022C3F8D6
:10282800F020D3F8F03003F480230993099B22E0C9
:10283800444BD3F8F02042F00102C3F8F020D3F85B
:10284800F03003F001030193019B00221146192087
:1028580004F04EFA192004F081FA0CE0394BD3F851
:10286800E82042F00102C3F8E820D3F8E83003F08A
:1028780001030293029B0BB05DF804FB314BD3F8C4
:10288800E82042F00202C3F8E820D3F8E83003F069
:1028980002030393039BEEE72A4BD3F8E82042F0A8
:1028A8001002C3F8E820D3F8E83003F010030493CB
:1028B800049BE0E7234BD3F8E82042F02002C3F85A
:1028C800E820D3F8E83003F020030593059BD2E70E
:1028D8001C4BD3F8E82042F08002C3F8E820D3F874
:1028E800E83003F080030693069BC4E7154BD3F842
:1028F800E82042F48072C3F8E820D3F8E83003F403
:1029080080730793079BB6E70E4BD3F8F02042F489
:102918000032C3F8F020D3F8F03003F40033089302
:10292800089BA8E700000140000400400010004098
:1029380000140040001C00400020004000440140FA
:10294800004801400044025810B58CB0002307939A
:10295800089309930A930B930368474A934207D055
:10296800464A934240D0464A934260D00CB010BDCC
:10297800444BD3F8E82042F00402C3F8E820D3F827
:10298800E82002F004020092009AD3F8E02042F016
:102998000202C3F8E020D3F8E02002F0020201921C
:1029A800019AD3F8E02042F00802C3F8E020D3F8F7
:1029B800E03003F008030293029B4FF480730793FF
:1029C800022408940B9407A92F4803F0A9F94FF49F
:1029D800405307930894002309930A930B9407A97B
:1029E8002A4803F09DF9C1E7264BD3F8E82042F0C6
:1029F8004002C3F8E820D3F8E82002F0400203922E
:102A0800039AD3F8E02042F08002C3F8E020D3F81C
:102A1800E03003F080030493049B402307930223D0
:102A280008930B9307A91A4803F07AF99EE7154B08
:102A3800D3F8F02042F48032C3F8F020D3F8F02025
:102A480002F480320592059AD3F8E02042F0100291
:102A5800C3F8E020D3F8E03003F010030693069B98
:102A6800402307930223089304230B9307A90948DB
:102A780003F056F97AE700BF00080040001800404C
:102A8800004001400044025800040258000C02585B
:102A9800001C02580010025800B58BB000230593A3
:102AA80006930793089309930368284A934205D02D
:102AB800274A934226D00BB05DF804FB254BD3F888
:102AC800E82042F00802C3F8E820D3F8E82002F032
:102AD80008020192019AD3F8E02042F08002C3F87C
:102AE800E020D3F8E03003F080030293029B4FF418
:102AF8004063059302230693099305A9164803F03A
:102B08000FF9D8E7134BD3F8F02042F00202C3F8CC
:102B1800F020D3F8F02002F002020392039AD3F8CF
:102B2800E02042F48072C3F8E020D3F8E03003F4E8
:102B380080730493049B6023059302230693032365
:102B4800099305A9054803F0EBF8B4E7000C004029
:102B58000004014000440258001C0258002002589A
:102B680000B587B000230193029303930493059360
:102B780002680F4B9A4202D007B05DF804FB0D4B78
:102B8800D3F8E02042F02002C3F8E020D3F8E03088
:102B980003F020030093009B4FF40073019302237A
:102BA80002930923059301A9034803F0B9F8E3E761
:102BB80000200040004402580014025800B589B0B3
:102BC80000230193029303930493059306930793B9
:102BD8001548164A0260436083604FF6FF72C26070
:102BE8000361836106F0DEFCA0B90F4806F00AFD18
:102BF80098B960230193002202920392059201A9D9
:102C0800094806F003FE58B90748FFF7A9FF09B0BD
:102C18005DF804FBFDF7F2FCE7E7FDF7EFFCE8E7FA
:102C2800FDF7ECFCF0E700BF280B00200020004077
:102C38007047FEE7FEE7FEE7FEE7FEE770477047EE
:102C4800704708B504F002F908BD000008B502484D
:102C580003F076FC08BD00BFE801002008B5024873
:102C680003F06EFC08BD00BF6002002008B50248F2
:102C780003F066FC08BD00BF5C01002008B50348EE
:102C880000F026F8024800F023F808BD30000020C4
:102C98009400002008B5024806F034FB08BD00BFC8
:102CA800440A002082B0074BD3F8F42042F0020215
:102CB800C3F8F420D3F8F43003F002030193019B26
:102CC80002B07047004402587047704770470000D0
:102CD800F8B5044603681D685E689649964A9342AB
:102CE80018BF8B4240D1954B9F6807F01F0715F01E
:102CF800020F10D016F0020F0DD0636D13F0100FF5
:102D080003D1636D43F400636365204600F0A8FDBA
:102D1800236802221A6015F0040F02D016F0040F7F
:102D280005D115F0080F4FD016F0080F4CD0636D81
:102D380013F0100F03D1636D43F4007363652368C8
:102D4800DA6812F4406F39D17B4A93420ED01A46A2
:102D580093420ED0052F14BF002101214FB141B974
:102D6800092F06D0D26805E0754BBDE7A2F5807241
:102D7800EEE7DA6812F4005F20D11A6812F0080F43
:102D88001CD09A6812F0040F10D15A6822F00C0275
:102D98005A60636D23F480736365636D13F4805F19
:102DA8000CD1636D43F00103636507E0636D43F085
:102DB80010036365A36D43F00103A3652046FFF785
:102DC80083FF23680C221A6015F0200F02D016F03A
:102DD800200F05D115F0400F63D016F0400F60D0DA
:102DE800636D13F0100F03D1636D43F400536365F3
:102DF8002368DA6C12F4C07F19D10121DA6812F461
:102E0800406F16D101204C4A934214D01A4693427F
:102E180014D0062F14BF4FF0000C4FF0010C6FB107
:102E2800BCF1000F0AD1072F08D0D26807E00021B3
:102E3800E4E70020E7E7A2F58072E8E7DA6831B94D
:102E480012F0007F27D130B312F4005F23D1196844
:102E580011F0400F1FD012F4001F1CD19A6812F015
:102E6800080F10D15A6822F060025A60636D23F48B
:102E780080536365636D13F4807F0CD1636D43F0F9
:102E88000103636507E0636D43F010036365A36D99
:102E980043F00103A365204600F0DEFC23686022AE
:102EA8001A6015F0800F02D016F0800F36D115F495
:102EB800807F02D016F4807F44D115F4007F02D0C1
:102EC80016F4007F4AD115F0100F20D016F0100F1D
:102ED8001DD0236B6BB1002F4ED023681549164ABD
:102EE800934218BF8B4245D1144B9B6813F4404F53
:102EF8000AD0636D43F480636365A36D43F00203F6
:102F0800A3652046FFF7E2FE236810221A6015F435
:102F1800806F02D016F4806F34D1F8BD636D43F42E
:102F2800803363652046FFF7D0FE236880221A604D
:102F3800BDE700BF002002400021024000230240FC
:102F480000630258636D43F400336365204600F064
:102F580085FC23684FF480721A60AEE7636D43F412
:102F680080236365204600F07AFC23684FF40072E2
:102F78001A60A8E70B4BB8E72368DB6813F0030F68
:102F8800C2D0B6E7636D43F480436365A36D43F035
:102F98000803A36523684FF480621A60204600F096
:102FA8005CFCBAE700630258F0B583B000220192D6
:102FB80090F85020012A00F055820346012280F83B
:102FC80050200068826812F0040F09D05A6D42F050
:102FD80020025A650120002283F8502003B0F0BD7A
:102FE8000A68C2F31304002C4ED1C2F38462012490
:102FF8009440C2692243C2611D684C683035220A78
:10300800920002F00C02A85804F01F0E1F2404FAC4
:103018000EF420EA04000C68C4F3846C0CFA0EFC6D
:1030280040EA0C00A8501C68A26812F0040200D004
:103038000122A06810F0080000D0012002432FD020
:103048001868826812F0010F40F008820A68CD689B
:10305800D0F8C040C2F3130624EA060405F0180CA1
:10306800B24D25FA0CF52A40C2F313022243C0F8E8
:10307800C020C868AE4A904200F0B0800A68002AB2
:10308800C0F26B810020A6E792FAA2F232B1B2FA3E
:1030980082F202F01F0201249440AAE72022F8E7F6
:1030A8000F688D681434780E800000F004002658EC
:1030B800C7F3045E4FF0070C0CFA0EFC26EA0C0C62
:1030C80005FA0EF54CEA050525509A48006800F007
:1030D8007040B0F1805F0BD01C68E06810F0100FF2
:1030E80039D14869E468C4F382046400A04006E06A
:1030F80048691C68E468C4F382046400A0400D6950
:10310800042D36D01F680E68603757F8254004F044
:10311800004406F0F8463043204347F82500186875
:103128000E694C7E012C1ED01546603050F82640A2
:1031380024F000442C4340F826401D680C69087EA2
:10314800012813D0286920F4F04004F01F04A2409D
:1031580002432A6174E74869E468A40804F0040497
:103168006400A040CBE74FF00045DEE74FF4006273
:10317800E8E71868026E02F0F8420C68B2EB846F58
:103188001DD01868426E02F0F8420C68B2EB846FEA
:103198001AD01868826E02F0F8420C68B2EB846F9D
:1031A80017D01868C26E02F0F8420C68B2EB846F50
:1031B8007FF446AFC26E22F00042C26640E7026E5C
:1031C80022F000420266DCE7426E22F000424266CC
:1031D800DFE7826E22F000428266E2E71C680A6836
:1031E800C2F31305002D34D1900E013000F01F00FA
:1031F80009288CBF00200120002861D0002D37D17C
:10320800900E0130800600F0F840002D3CD1960E5B
:10321800013606F01F070126BE403043002D41D17C
:10322800920E013202F01F0202EB42021205024323
:1032380088681434550EAD0005F004056659C2F3CC
:1032480004520727974026EA07069040304360510A
:1032580014E792FAA2F048B1B0FA80F0013000F019
:103268001F0009288CBF00200120C5E72020F5E7B2
:1032780092FAA2F030B1B0FA80F00130800600F086
:10328800F840C2E72020F8E792FAA2F646B1B6FA6B
:1032980086F6013606F01F06012707FA06F6BCE790
:1032A8002026F6E792FAA2F242B1B2FA82F201328D
:1032B80002F01F0202EB42021205B8E72022F6E7ED
:1032C800CDB9900E0130800600F0F840FDB9960E99
:1032D800013606F01F070126BE40304365BB920E3B
:1032E800013202F01F0202EB42021E3A120542F0BE
:1032F800007202439CE792FAA2F030B1B0FA80F073
:103308000130800600F0F840E0E72020F8E792FA64
:10331800A2F646B1B6FA86F6013606F01F06012770
:1033280007FA06F6D9E72026F6E700BFFFFF0F00E9
:103338000000FF470010005C92FAA2F25AB1B2FAFC
:1033480082F2013202F01F0202EB42021E3A12051B
:1033580042F00072CDE72022F3E719684248434C57
:10336800A14218BF81420CBF0120002021D1404E4C
:10337800B56805F0E077F0B13B48806810F00100CF
:1033880000D00120394CA46814F0010400D00124B5
:1033980020430CBF01200020002859D03548824224
:1033A80012D03548824231D0344882423FD0002082
:1033B80011E6334EDCE73348806810F0010000D096
:1033C800012080F00100E7E715F4000FE9D12D4A4C
:1033D800914201D00020FEE547F40002B16821F0D7
:1033E800E0710A43B260284A126892092749A1FB92
:1033F8000212920901325200019202E0019A013A46
:103408000192019A002AF9D10020E4E515F0807FA5
:10341800CAD11C4A914201D00020DCE547F08072F5
:10342800B16821F0E0710A43B2600020D3E515F4D9
:10343800800F15D1134A914201D00020CBE547F403
:103448008002B16821F0E0710A43B2600020C2E551
:103458005A6D42F020025A650120BCE50020BAE509
:103468000020B8E50220B9E5002002400021024012
:1034780000230240000084CB000052C70000B8CFF0
:10348800006302580060025808000020632D3E05C2
:1034980038B5044603684F494F4A934218BF8B42D8
:1034A80023D14E4B9B6813F4403F14BF01230023E4
:1034B8004BB300F0F1FF05466368B3F5003F1CD03D
:1034C800B3F5403F1DD0B3F5803F16D003F0E4FCC0
:1034D80041F20303984257D8414B9D424ED9226886
:1034E800936843F48073936038BD3E4B9B6813F434
:1034F800403F14BF01230023DAE71B0CB5FBF3F5AB
:10350800E4E78508E2E74FF4002002F0FFF80546FB
:103518006368B3F5101F2DD022D8B3F5E01F27D06C
:1035280004D9B3F5001FD1D14509CFE7B3F5801F02
:103538000DD006D9B3F5A01F09D0B3F5C01F06D02A
:10354800C4E7B3F5002F02D0B3F5402F04D19B0C8C
:103558005B00B5FBF3F5B9E7B3F5802FF7D0B5E716
:10356800B3F5201F08D0B3F5301FAFD1050AADE77A
:103578000509ABE78509A9E7C509A7E722689368A4
:1035880023F480739360AFE7174B9D4205D82268F8
:10359800936823F440739360A6E7144B9D4207D8C1
:1035A8002268936823F4407343F4807393609BE725
:1035B8000F4B9D4207D82268936823F4407343F465
:1035C8000073936090E72268936843F440739360B4
:1035D8008AE700BF00200240002102400023024089
:1035E800002D31010063025821BCBE0041787D01E5
:1035F80081F0FA0230B583B000230193002800F06F
:1036080010810446436DEBB123689A6812F0005F9D
:1036180003D09968844A0A409A6023689A6812F02D
:10362800805F1CD19968814A0A4042F080529A60B2
:103638007F4B1B689B097F4AA2FB03239B0901332D
:10364800019309E0FDF768FB0023A36584F8503077
:10365800DAE7019B013B0193019B002BF9D122681A
:10366800936813F0805F40F09C80636D43F0100313
:103678006365A36D43F00103A3650125936813F007
:10368800040300D00123616D11F0100F40F0C180D8
:10369800002B40F0BE80636D23F4817343F0020376
:1036A8006365936813F0010F21D16349634B9A4214
:1036B80018BF8A420CBF0122002274D18B6813F014
:1036C800010300D001235D49896811F0010100D090
:1036D80001210B430CBF0123002343B1002A6BD007
:1036E800574963688A6822F47C1213438B6003F09D
:1036F800D3FB41F20303984202D9A368102B5DD093
:10370800627D236B43EA4233A2681343227F43EA74
:103718000243227F012A5CD0626A22B102F47872E5
:10372800A16A0A4313432168C868464A0240134302
:10373800CB6021688B6813F0040300D001238A68EA
:1037480012F0080200D0012213431BD1227DE36A44
:1037580043EA8232C8683C4B03401343CB6094F879
:103768003830012B3AD02268136923F00103136122
:103778002268136923F07043616B0B431361204681
:10378800FFF786FEE368012B3AD02268136B23F01B
:103798000F031363636D23F0030343F001036365B1
:1037A8003CE000256AE7294B9B6813F0010300D031
:1037B800012383F0010390E7254992E7617D226B9D
:1037C80042EA41321343227F43EA024343F00C03A7
:1037D8009FE7226A013A43EA42439DE7206802696B
:1037E8001C4B1340E26B511E226C42EA0142616C91
:1037F8000A43A16C0A43134343F001030361B7E78B
:1038080021680B6B23F00F03A269013A13430B6382
:10381800C0E7636D43F0100363650125284603B0D4
:1038280030BD0125FAE700BFC0FFFF5FC0FFFF6F93
:1038380008000020632D3E050020024000210240C0
:103848000023024003C0F0FFFCBFFFFF00600258E6
:10385800006302581EF800FC7047704770477047B5
:103868007047000090F85020012A00F0A18030B481
:103878009AB00346012280F850200022169217922F
:1038880000684C4A904242D000220192019A002AD4
:1038980041D0926812F0040200D00122846814F02A
:1038A800040F76D1002A74D1424C434A904218BF83
:1038B800A04239D102F50072086800283FD090680C
:1038C80020F440404C68204390601868394D3A4CC9
:1038D800A04218BFA84229D1A86810F0010000D062
:1038E8000120354CA46814F0010400D001242043C1
:1038F8000CBF01200020002856D094682F48204093
:103908000C688968214308439060002046E002F56E
:1039180080720192BAE75A6D42F020025A6500227D
:1039280083F8502001203CE0254AC5E725488068F7
:1039380010F0010000D0012080F00100DBE7916861
:1039480021F44041916019681A4C1B48814218BF04
:10395800A14215D1A16811F0010100D0012116483A
:10396800806810F0010000D0012001430CBF012144
:103978000021D9B1906811490140916000200DE003
:103988001049896811F0010100D0012181F001017D
:10399800EFE75A6D42F020025A650120002283F8B1
:1039A80050201AB030BC70470020F7E70020F5E738
:1039B800022070470020024000210240E0F0FFFF93
:1039C8000063025800600258002800F0028338B5EE
:1039D8000446036813F0010F25D09C4A136903F0CD
:1039E8003803926A102B15D0182B0FD06368B3F5E3
:1039F800803F3FD0002B53D1944B1A6822F4803279
:103A08001A601A6822F480221A6038E002F0030271
:103A1800022AEBD18D4B1B6813F4003F03D0636877
:103A2800002B00F0D882236813F0020F00F08B807F
:103A3800864A1369926A13F038035AD0182B55D066
:103A4800E368002B00F0C88080490A6822F0190258
:103A580013430B6003F006FA05467C4B1B6813F012
:103A6800040F40F0978003F0FDF9401B0228F4D9B9
:103A78000320B7E2754A136843F480331360636820
:103A88002BB303F0EFF90546704B1B6813F4003FA6
:103A9800C9D103F0E7F9401B6428F5D90320A1E256
:103AA800B3F5A02F09D0694B1A6822F480321A6046
:103AB8001A6822F480221A60E1E7644B1A6842F41B
:103AC80080221A601A6842F480321A60D7E703F03D
:103AD800C9F905465D4B1B6813F4003FA3D003F0FA
:103AE800C1F9401B6428F5D903207BE212F0030FCB
:103AF800A6D1564B1B6813F0040F03D0E368002BC4
:103B080000F06B8203F0C8F941F20303984212D81F
:103B18002269402A07D04D494B6823F47C3343EA95
:103B280002334B600FE0494A536823F47C3343F473
:103B38000033536007E0454A536823F0FE43216988
:103B480043EA01635360236813F0100F00F0888084
:103B58003E4A136903F03803926A082B54D0182B95
:103B68004ED0E369002B00F0B880384A136843F060
:103B78008003136003F076F90546344B1B6813F491
:103B8800807F40F0888003F06DF9401B0228F4D94B
:103B9800032027E203F080F941F20303984212D888
:103BA8002269402A07D029494B6823F47C3343EA29
:103BB80002334B60C7E7254A536823F47C3343F448
:103BC80000335360BFE7214A536823F0FE4321695D
:103BD80043EA01635360B6E71C4A136823F0010304
:103BE800136003F03FF90546184B1B6813F0040FE8
:103BF800A9D003F037F9401B0228F5D90320F1E1D9
:103C080002F00302012AACD1104B1B6813F4807F29
:103C180003D0E369802B40F0E28103F03DF941F2E3
:103C28000303984214D8226A202A07D007494B6810
:103C380023F0F84343EA82634B6011E0034A536878
:103C480023F0F84343F08043536009E000440258EE
:103C58009A4AD36823F07C53216A43EA0163D3600C
:103C6800236813F0080F60D06369002B49D0934A8A
:103C7800536F43F00103536703F0F4F805468F4B85
:103C88005B6F13F0020F50D103F0ECF8401B0228D1
:103C9800F5D90320A6E103F0FFF841F203039842A7
:103CA80012D8226A202A07D084494B6823F0F843A7
:103CB80043EA82634B60D3E7804A536823F0F843B2
:103CC80043F080435360CBE77C4AD36823F07C53AE
:103CD800216A43EA0163D360C2E7784A136823F094
:103CE8008003136003F0BEF80546744B1B6813F499
:103CF800807FB5D003F0B6F8401B0228F5D9032021
:103D080070E16E4A536F23F00103536703F0AAF87A
:103D180005466A4B5B6F13F0020F06D003F0A2F85A
:103D2800401B0228F5D903205CE1236813F0200F1B
:103D380029D0A3699BB1614A136843F48053136087
:103D480003F090F805465D4B1B6813F4005F1AD129
:103D580003F088F8401B0228F5D9032042E1574AAE
:103D6800136823F48053136003F07CF80546534B23
:103D78001B6813F4005F06D003F074F8401B022898
:103D8800F5D903202EE1236813F0040F21D1636ACB
:103D9800002B00F02681494A126902F03802182ADD
:103DA80000F0EE80022B75D0444A136823F080732C
:103DB800136003F057F80446404B1B6813F0007F6C
:103DC80000F0DC8003F04EF8001B0228F4D9032031
:103DD80008E13B4A136843F48073136003F042F828
:103DE8000546374B1B6813F4807F06D103F03AF879
:103DF800401B6428F5D90320F4E0A368012B0AD0FE
:103E08000BBB2E4B1A6F22F001021A671A6F22F0B1
:103E180004021A6704E0294A136F43F00103136789
:103E2800A36833B303F01EF80546244B1B6F13F049
:103E3800020FACD103F016F8401B41F288339842C8
:103E4800F3D90320CEE0052B09D01C4B1A6F22F0C2
:103E580001021A671A6F22F004021A67E0E7174B8B
:103E68001A6F42F004021A671A6F42F001021A67C9
:103E7800D6E702F0F7FF0546104B1B6F13F0020F51
:103E880085D002F0EFFF401B41F288339842F3D906
:103E98000320A7E0094A136823F08073136002F037
:103EA800E1FF0546054B1B6813F0007F0AD002F0BE
:103EB800D9FF401B0228F5D9032093E0004402589B
:103EC800004802584F4B996A4F4A0A40A16AE06A73
:103ED80041EA00110A439A62226B013AC2F30802CE
:103EE800616B0139490289B20A43A16B013909049E
:103EF80001F4FE010A43E16B0139090601F0FE41B4
:103F08000A431A63DA6A22F00102DA62596B3F4AFD
:103F18000A40A16C42EAC1025A63DA6A22F00C0232
:103F2800216C0A43DA62DA6A22F00202616C0A43FF
:103F3800DA62DA6A42F48032DA62DA6A42F4003229
:103F4800DA62DA6A42F48022DA62DA6A42F001025C
:103F5800DA621A6842F080721A6002F083FF04463F
:103F6800284B1B6813F0007F06D102F07BFF001B73
:103F78000228F5D9032035E0002033E0002031E0A5
:103F8800204A916A106B012B2DD001F00303A26A1D
:103F980093422AD1C1F30511E36A994227D1C0F3AC
:103FA8000802236B013B9A4223D1C0F34622636B7C
:103FB800013B9A421FD1C0F30642A36B013B9A42D0
:103FC8001BD1C0F30660E36B013B984217D1002078
:103FD80008E001207047012004E0012002E00120F0
:103FE80000E0002038BD0120FCE70120FAE70120AD
:103FF800F8E70120F6E70120F4E70120F2E70120C5
:10400800F0E700BF004402580CFCFFFF0700FFFF69
:10401800744B1B6903F03803102B00F0DE80182B5B
:1040280010D00BB1704870476E4B1B6813F0200F0F
:1040380000F0D5806B4B1868C0F3C1006B4B23FAB6
:1040480000F0704710B4674A916A01F00301946A5E
:10405800C4F30510D36A03F0010C536BC3F3CC030C
:104068000CFB03F307EE903AF8EE677A14F47C7FC2
:1040780000F09380012965D0022900F09180E1B118
:1040880007EE100AF8EE476A9FED596A86EE267A1F
:10409800544B1B6BC3F3080306EE903AF8EE666ABE
:1040A8009FED546A67EE867A76EEA77AF7EE006A95
:1040B80077EEA67A27EE277A60E0136813F0200FD0
:1040C80023D011461268C2F3C102484BD34007EE11
:1040D800103AF8EE476A07EE100AB8EE476A86EE1D
:1040E800867A0B6BC3F3080306EE903AF8EE666A1D
:1040F8009FED406A67EE867A76EEA77AF7EE006A59
:1041080077EEA67A27EE277A38E007EE100AF8EE5F
:10411800476A9FED396A86EE267A324B1B6BC3F3EA
:10412800080306EE903AF8EE666A9FED326A67EE8B
:10413800867A76EEA77AF7EE006A77EEA67A27EE09
:10414800277A1BE007EE100AF8EE476A9FED286A07
:1041580086EE267A234B1B6BC3F3080306EE903AD0
:10416800F8EE666A9FED236A67EE867A76EEA77A9E
:10417800F7EE006A77EEA67A27EE277A194B1B6BC3
:10418800C3F34623013307EE903AF8EE677AC7EE99
:10419800276AFCEEE67A17EE900A5DF8044B704742
:1041A80007EE100AF8EE476A9FED146A86EE267A43
:1041B8000C4B1B6BC3F3080306EE903AF8EE666AE5
:1041C8009FED0C6A67EE867A76EEA77AF7EE006ABC
:1041D80077EEA67A27EE277AD0E709487047034892
:1041E800704700BF0044025800093D000090D0030A
:1041F8000024744A000000390024744C0024744BD5
:104208000024F400002800F0328170B50D46044601
:104218009B4B1B6803F00F038B420BD2984A136821
:1042280023F00F030B431360136803F00F038B4253
:1042380040F01F81236813F0040F0CD02269914BC2
:104248009B6903F070039A4205D98E498B6923F064
:1042580070031A438A61236813F0080F0CD062694F
:10426800884BDB6903F070039A4205D98549CB690D
:1042780023F070031A43CA61236813F0100F0CD09F
:10428800A269804BDB6903F4E0639A4205D97D4952
:10429800CB6923F4E0631A43CA61236813F0200F43
:1042A8000CD0E269774B1B6A03F070039A4205D978
:1042B80074490B6A23F070031A430A62236813F0E7
:1042C800020F0CD0E2686F4B9B6903F00F039A4210
:1042D80005D96C498B6923F00F031A438A61236857
:1042E80013F0010F41D0674A936923F47063A16802
:1042F8000B4393616368022B0AD0032B27D0012B51
:104308002CD0604A126812F0040F06D10120ADE0EB
:10431800126812F4003F00F0AE805A490A6922F090
:10432800070213430B6102F09DFD0646554B1B69BE
:1043380003F038036268B3EBC20F16D002F092FDA7
:10434800801B41F288339842F0D903208EE04D4A11
:10435800126812F0007FE0D1012087E0494A126814
:1043680012F4807FD9D1012080E0236813F0020F76
:104378000CD0E268434B9B6903F00F039A4205D2C5
:1043880040498B6923F00F031A438A613C4B1B6831
:1043980003F00F03AB420AD9394A136823F00F031D
:1043A8002B431360136803F00F03AB4265D12368F6
:1043B80013F0040F0CD02269324B9B6903F0700391
:1043C8009A4205D22F498B6923F070031A438A61F8
:1043D800236813F0080F0CD062692A4BDB6903F0DD
:1043E80070039A4205D22749CB6923F070031A4318
:1043F800CA61236813F0100F0CD0A269214BDB6946
:1044080003F4E0639A4205D21E49CB6923F4E063C2
:104418001A43CA61236813F0200F0CD0E269194BC4
:104428001B6A03F070039A4205D216490B6A23F0FF
:1044380070031A430A62FFF7EBFD12498B69C3F355
:104448000323114AD35C03F01F03D8408B6903F0A0
:104458000F03D35C03F01F0320FA03F30B4A136026
:104468000B4B18600B4B186802F09AFC70BD0120CA
:1044780070470120FAE70120F8E70120F6E700BFBE
:104488000020005200440258349F00080C0000200D
:10449800080000200400002008B5FFF7B9FD0B4A0A
:1044A8009369C3F303230A49CB5C03F01F0320FA83
:1044B80003F3926902F00F02885C00F01F0023FAF0
:1044C80000F0044A1060044A136008BD0044025812
:1044D800349F00080C0000200800002008B5FFF7F2
:1044E800DBFF054BDB69C3F30213044AD35C03F01B
:1044F8001F03D84008BD00BF00440258349F00087D
:1045080008B5FFF7C9FF054BDB69C3F30223044A6B
:10451800D35C03F01F03D84008BD00BF0044025815
:10452800349F0008404B9B6A03F00303032B79D0A8
:1045380070B505460E463C4A136823F08063136045
:1045480002F090FC0446384B1B6813F0006F06D04D
:1045580002F088FC031B022BF5D9032070BD324BF7
:104568009A6A22F47C32296842EA01329A626A68BD
:10457800013AC2F30802A9680139490289B20A431B
:10458800E9680139090401F4FE010A43296901397E
:10459800090601F0FE410A439A63DA6A22F0C00272
:1045A80069690A43DA62DA6A22F02002A9690A43D1
:1045B800DA62DA6A22F01002DA62D96B1B4A0A4020
:1045C800E96942EAC102DA63DA6A42F01002DA62A1
:1045D800C6B91A46DB6A43F40023D362124A136849
:1045E80043F08063136002F03DFC04460E4B1B68E9
:1045F80013F0006F14D102F035FC001B0228F5D926
:104608000320ABE7012E05D0074AD36A43F4001311
:10461800D362E3E7044AD36A43F48013D362DDE745
:1046280000209BE701207047004402580700FFFF65
:10463800404B9B6A03F00303032B79D070B5054602
:104648000E463C4A136823F08053136002F00AFCBC
:104658000446384B1B6813F0005F06D002F002FCDA
:10466800031B022BF5D9032070BD324B9A6A22F046
:104678007C72296842EA01529A626A68013AC2F376
:104688000802A9680139490289B20A43E96801396F
:10469800090401F4FE010A4329690139090601F0F8
:1046A800FE410A431A64DA6A22F4406269690A43DD
:1046B800DA62DA6A22F40072A9690A43DA62DA6A0B
:1046C80022F48072DA62596C1B4A0A40E96942EAAC
:1046D800C1025A64DA6A42F48072DA62C6B91A46CA
:1046E800DB6A43F48003D362124A136843F08053B1
:1046F800136002F0B7FB04460E4B1B6813F0005F13
:1047080014D102F0AFFB001B0228F5D90320ABE758
:10471800012E05D0074AD36A43F08073D362E3E7DA
:10472800044AD36A43F40003D362DDE700209BE721
:1047380001207047004402580700FFFFF8B50446FF
:10474800036813F0006F30D0436EB3F5001F26D016
:104758000ED8EBB1B3F5801F07D102210430FFF763
:10476800E1FE054645B12E4621E0012635461EE00C
:10477800B3F5401F09D10025954A136D23F4401362
:10478800616E0B431365002611E0012635460EE0E5
:104798008F4AD36A43F40033D3620025ECE7022141
:1047A8002430FFF745FF0546DCE700263546236839
:1047B80013F4807F14D0636D042B30D8DFE803F046
:1047C800032228080800824AD36A43F40033D362DC
:1047D80045BB7F4A136D23F00703616D0B431365D7
:1047E800236813F4007F2FD0A36D802B49D01ED8E7
:1047F800002B40D0402B17D10021201DFFF792FE3F
:10480800054619E00021201DFFF78CFE0546DFE76D
:10481800002104F12400FFF70BFF0546D8E7012625
:104828003546DDE72E46DBE7012635460CE0C02B92
:1048380002D0B3F5807F1BD155BB654A136D23F4B5
:10484800E073A16D0B431365236813F4806F45D0A3
:10485800D4F8A430B3F5800F38D01ED883B3B3F59D
:10486800001F17D10021201DFFF75CFE05461AE046
:1048780001263546E8E7564AD36A43F40033D36243
:10488800DAE7002104F12400FFF7D2FE0546D3E75A
:104898002E46D9E70126354620E0B3F5C00F02D0F1
:1048A800B3F5000F09D1C5B9494A936D23F46003E4
:1048B800D4F8A4100B43936510E0012635460DE0AB
:1048C800434AD36A43F40033D362ECE7002104F18E
:1048D8002400FFF7ADFE0546E5E72E46236813F4EE
:1048E800006F23D0D4F8A830B3F1007F41D00DD8A1
:1048F800002B38D0B3F1807F05D10021201DFFF7B0
:1049080011FE054608E0012635460FE0B3F1407F69
:1049180002D0B3F1806F23D1002D31D12C4A936D91
:1049280023F0E063D4F8A8100B439365236813F0D1
:10493800007F2ED0A36C202B3FD026D833B1102B6C
:1049480020D1234AD36A43F40033D362002D3AD1ED
:104958001F4AD36C23F03003A16C0B43D36418E0D7
:1049680001263546E2E71A4AD36A43F40033D36294
:10497800D2E7002104F12400FFF75AFE0546CBE7F1
:104988002E46D3E70126354603E0302BDED001263C
:104998003546236813F4805F2BD0E36DB3F5005FD1
:1049A8004CD017D8002B43D0B3F5805F0DD1002130
:1049B800201DFFF7B7FD054612E00221201DFFF775
:1049C800B1FD0546C2E72E46E3E70126354610E06D
:1049D80000440258B3F5405F02D0B3F5804F24D1AC
:1049E800002D32D1754A136D23F4E043E16D0B437A
:1049F8001365236813F4005F37D0236EB3F5003FC7
:104A080051D027D83BB1B3F5803F20D10121201DDB
:104A1800FFF788FD0546002D4CD1684A136D23F435
:104A2800E023216E0B4313651FE001263546E0E7BE
:104A3800624AD36A43F40033D362D1E7002104F118
:104A48002400FFF7F5FD0546CAE72E46D1E7012603
:104A580035460AE0B3F5802FDDD0B3F5A02FDAD0C4
:104A6800B3F5403FD7D001263546236813F4804F6D
:104A780030D0D4F8AC30B3F1005F44D01FD83BB18C
:104A8800B3F1805F18D10121201DFFF74BFD0546CA
:104A9800002D3FD1494A936D23F0E043D4F8AC1080
:104AA8000B43936516E0012104F12400FFF7C0FDD4
:104AB8000546B0E72E46D8E7012635460AE0B3F1A9
:104AC800804FE5D0B3F1A04FE2D0B3F1405FDFD023
:104AD80001263546236813F4004F09D0E36EB3F17D
:104AE800805F19D0B3F1005F24D0D3B101263546D9
:104AF800236813F0807F32D0636C032B59D8DFE82A
:104B080003F026215226012104F12400FFF790FD2D
:104B18000546BDE72E46DDE7284AD36A43F400334D
:104B2800D3626DB9254A136D23F04053E16E0B43F0
:104B38001365DDE70121201DFFF7F4FC0546F0E7CA
:104B48002E46D5E71D4AD36A43F40033D3629DBB92
:104B58001A4AD36C23F00303616C0B43D3642368B4
:104B680013F4800F2CD1236813F0010F00F0A380F9
:104B7800A36F282B00F29D80DFE803F08B9B9B9BA3
:104B88009B9B9B9B869B9B9B9B9B9B9B949B9B9B89
:104B98009B9B9B9B8B9B9B9B9B9B9B9B8B9B9B9B7D
:104BA8009B9B9B9B8B000221201DFFF7BBFC0546AE
:104BB800CDE701263546D2E72E46D0E70044025815
:104BC8008F4A136843F48073136002F04BF9074669
:104BD8008B4B1B6813F4807F05D102F043F9C01B8F
:104BE8006428F5D90325002D4AD1864B1B6FD4F8CC
:104BF800B020534013F4407F0CD0824B1A6F22F43C
:104C08004072196F41F480311967196F21F48031AE
:104C180019671A67D4F8B030B3F5807F15D08DBB0B
:104C2800D4F8B03003F44072B2F5407F1ED0754A14
:104C3800136923F47C53136172490B6FD4F8B020C5
:104C4800C2F30B0213430B678DE702F00BF907461B
:104C58006C4B1B6F13F0020FE1D102F003F9C01B7C
:104C680041F288339842F3D90325D8E765480269A9
:104C780022F47C52644901EA131313430361DBE70E
:104C88002E4670E72E466EE70121201DFFF74AFCED
:104C98000546E5B95B4A536D23F03803A16F0B4312
:104CA800536508E0012104F12400FFF7C1FC054623
:104CB800EFE701263546236813F0020F16D0636F1D
:104CC800052B27D8DFE803F00A051F0A0A0A2E4633
:104CD800F1E70121201DFFF725FC0546EDB9494AFA
:104CE800536D23F00703616F0B435365236813F07B
:104CF800040F22D0D4F89030052B43D8DFE803F016
:104D0800140F3B141414012104F12400FFF790FC44
:104D18000546E3E701263546E8E72E46E6E70121A2
:104D2800201DFFF7FFFB05467DBB364A936D23F038
:104D38000703D4F890100B439365236813F0200FF2
:104D480033D0D4F88C30B3F1005F4CD022D83BB1CB
:104D5800B3F1805F1BD10021201DFFF7E3FB05465F
:104D6800002D47D1274A536D23F0E043D4F88C1027
:104D78000B43536519E0012104F12400FFF758FCA7
:104D88000546D1E701263546D7E72E46D5E7012661
:104D980035460AE0B3F1804FE2D0B3F1A04FDFD03F
:104DA800B3F1405FDCD001263546236813F0400F8D
:104DB80037D0D4F89830B3F5006F52D026D83BB12D
:104DC800B3F5806F18D10021201DFFF7ABFB054616
:104DD800002D4DD10B4A936D23F4E053D4F898106D
:104DE8000B4393651DE0022104F12400FFF720FC2A
:104DF8000546B5E72E46D8E70126354611E000BF3F
:104E08000048025800440258CFFFFF00B3F5805F06
:104E1800DED0B3F5A05FDBD0B3F5406FD8D0012664
:104E28003546236813F0800F32D0D4F89C30B3F5A0
:104E3800804F00F09D8020D83BB1B3F5005F19D1B9
:104E48000021201DFFF76EFB0546002D40F09780DE
:104E5800A54A936D23F46043D4F89C100B439365E3
:104E680016E0022104F12400FFF7E2FB0546AFE754
:104E78002E46D6E7012635460AE0B3F5004FE4D0C2
:104E8800B3F5204FE1D0B3F5C04FDED0012635464B
:104E9800236813F0080F0CD0D4F88030B3F5805F86
:104EA8006FD0914A536D23F44053D4F880100B43CC
:104EB8005365236813F0100F0CD0D4F89430B3F571
:104EC800807F67D0884A936D23F44073D4F8941098
:104ED8000B439365236813F4002F0BD0D4F8A0304C
:104EE800B3F5803F6ED0B3F5003F61D0002B5AD0A8
:104EF80001263546236813F4802F0CD0D4F884306B
:104F0800B3F5001F76D0B3F5401F69D0B3F5801F05
:104F180061D001263546236813F4803F07D0E36C3F
:104F2800002B70D0B3F5803F7BD00126354623682F
:104F380013F0005F7DD1236813F4003F00F08680F2
:104F4800E36FB3F5807F00F0C6807CD9B3F5007FAE
:104F580003D0B3F5407F40F0BC80002D40F0C18005
:104F6800614A536D23F44073E16F0B4353656DE061
:104F7800022104F12400FFF75BFB054665E72E4696
:104F880086E7022104F12400FFF752FB002888D0AD
:104F9800012686E7022104F12400FFF749FB0028D7
:104FA80090D001268EE70021201DFFF7BBFA0546A9
:104FB8007DB94D4A936D23F44033D4F8A0100B43C8
:104FC800936597E7022104F12400FFF731FB0546BA
:104FD800EEE72E468EE7444AD36A43F40033D362A1
:104FE8007DB9414A536D23F44013D4F884100B4320
:104FF800536590E7012104F12400FFF719FB0546EA
:10500800EEE72E4687E7384AD36A43F40033D36283
:105018006DB9354AD36C23F48033E16C0B43D36408
:1050280085E70221201DFFF77DFA0546F0E72E46A9
:105038007DE7022104F12400FFF7FAFA00283FF483
:105048007AAF012677E7002B87D00126236813F46F
:10505800801F06D0244A136D23F00043216F0B43B1
:105068001365236813F0805F07D01F4A136923F480
:105078008043D4F8B4100B431361236813F4001F62
:1050880006D0194A136D23F08073A16E0B43136584
:10509800236813F0804F09D0134B1A6922F4004299
:1050A8001A611A69D4F8B8100A431A612368002BE8
:1050B8001CDB236813F4000F07D00B4A536D23F44D
:1050C8004003D4F888100B43536506B101263046D7
:1050D800F8BD0126BAE7044AD36A43F40033D36221
:1050E8003BE72E46B2E700BF00440258034AD36CA0
:1050F80023F04053216D0B43D364DAE70044025890
:1051080008B5FFF7C9F9054B1B6AC3F30213044A34
:10511800D35C03F01F03D84008BD00BF0044025809
:10512800349F000810B5774A916A946AC4F3053E23
:10513800D36AC3F3001CD36BC3F3CC030CFB03F398
:1051480014F47C3F00F0D88001F0030107EE903A98
:10515800F8EE677A012965D0022900F0B080E1B144
:1051680007EE10EAB8EE477A9FED676AC6EE076A5F
:10517800644B9B6BC3F3080307EE103AB8EE477A0B
:105188009FED626A67EE867A77EE277AB7EE007A45
:1051980077EE877A66EEA76A60E0136813F0200F4F
:1051A80023D011461268C2F3C102594BD34007EE0F
:1051B800103AB8EE477A06EE90EAB8EE666AC7EE9D
:1051C800066A8B6BC3F3080307EE103AB8EE477A0A
:1051D8009FED4E6A67EE867A77EE277AB7EE007A09
:1051E80077EE877A66EEA76A38E007EE10EAB8EE3F
:1051F800477A9FED486AC6EE076A424B9B6BC3F33A
:10520800080307EE103AB8EE477A9FED406A67EE5A
:10521800867A77EE277AB7EE007A77EE877A66EEA7
:10522800A76A1BE007EE10EAB8EE477A9FED366AE8
:10523800C6EE076A334B9B6BC3F3080307EE103ABD
:10524800B8EE477A9FED316A67EE867A77EE277A6D
:10525800B7EE007A77EE877A66EEA76A294A936BEB
:10526800C3F3462307EE103AB8EE477AB7EE006A62
:1052780037EE067AC6EE877AFCEEE77AC0ED007A5A
:10528800936BC3F3064307EE103AB8EE477A37EE4E
:10529800067AC6EE877AFCEEE77AC0ED017A936B60
:1052A800C3F3066307EE903AF8EE677A77EE867AEC
:1052B80086EEA77ABCEEC77A80ED027A10BD07EEBB
:1052C80010EAB8EE477A9FED146AC6EE076A0D4BEE
:1052D8009B6BC3F3080307EE103AB8EE477A9FEDCD
:1052E8000B6A67EE867A77EE277AB7EE007A77EE62
:1052F800877A66EEA76AB1E700230360436083609C
:10530800DCE700BF004402580024744A000000395A
:105318000090D0030024744C0024744B10B5774AD5
:10532800916A946AC4F3055ED36AC3F3002C536C84
:10533800C3F3CC030CFB03F314F07C7F00F0D8809C
:1053480001F0030107EE903AF8EE677A012965D07B
:10535800022900F0B080E1B107EE10EAB8EE477A12
:105368009FED676AC6EE076A644B1B6CC3F30803BC
:1053780007EE103AB8EE477A9FED626A67EE867AD2
:1053880077EE277AB7EE007A77EE877A66EEA76A25
:1053980060E0136813F0200F23D011461268C2F39F
:1053A800C102594BD34007EE103AB8EE477A06EEE1
:1053B80090EAB8EE666AC7EE066A0B6CC3F3080398
:1053C80007EE103AB8EE477A9FED4E6A67EE867A96
:1053D80077EE277AB7EE007A77EE877A66EEA76AD5
:1053E80038E007EE10EAB8EE477A9FED486AC6EE55
:1053F800076A424B1B6CC3F3080307EE103AB8EE7A
:10540800477A9FED406A67EE867A77EE277AB7EE9D
:10541800007A77EE877A66EEA76A1BE007EE10EA55
:10542800B8EE477A9FED366AC6EE076A334B1B6CB7
:10543800C3F3080307EE103AB8EE477A9FED316AD6
:1054480067EE867A77EE277AB7EE007A77EE877A74
:1054580066EEA76A294A136CC3F3462307EE103A8F
:10546800B8EE477AB7EE006A37EE067AC6EE877A64
:10547800FCEEE77AC0ED007A136CC3F3064307EE3F
:10548800103AB8EE477A37EE067AC6EE877AFCEE1F
:10549800E77AC0ED017A136CC3F3066307EE903A1E
:1054A800F8EE677A77EE867A86EEA77ABCEEC77A48
:1054B80080ED027A10BD07EE10EAB8EE477A9FED4C
:1054C800146AC6EE076A0D4B1B6CC3F3080307EE9C
:1054D800103AB8EE477A9FED0B6A67EE867A77EE58
:1054E800277AB7EE007A77EE877A66EEA76AB1E791
:1054F8000023036043608360DCE700BF0044025878
:105508000024744A000000390090D0030024744C31
:105518000024744B10B5774A916A946AC4F3051E47
:10552800D36A03F0010C536BC3F3CC030CFB03F3F6
:1055380014F47C7F00F0D88001F0030107EE903A64
:10554800F8EE677A012965D0022900F0B080E1B150
:1055580007EE10EAB8EE477A9FED676AC6EE076A6B
:10556800644B1B6BC3F3080307EE103AB8EE477A97
:105578009FED626A67EE867A77EE277AB7EE007A51
:1055880077EE877A66EEA76A60E0136813F0200F5B
:1055980023D011461268C2F3C102594BD34007EE1B
:1055A800103AB8EE477A06EE90EAB8EE666AC7EEA9
:1055B800066A0B6BC3F3080307EE103AB8EE477A96
:1055C8009FED4E6A67EE867A77EE277AB7EE007A15
:1055D80077EE877A66EEA76A38E007EE10EAB8EE4B
:1055E800477A9FED456AC6EE076A424B1B6BC3F3C9
:1055F800080307EE103AB8EE477A9FED406A67EE67
:10560800867A77EE277AB7EE007A77EE877A66EEB3
:10561800A76A1BE007EE10EAB8EE477A9FED396AF1
:10562800C6EE076A334B1B6BC3F3080307EE103A49
:10563800B8EE477A9FED316A67EE867A77EE277A79
:10564800B7EE007A77EE877A66EEA76A294A136B77
:10565800C3F3462307EE103AB8EE477AB7EE006A6E
:1056680037EE067AC6EE877AFCEEE77AC0ED007A66
:10567800136BC3F3064307EE103AB8EE477A37EEDA
:10568800067AC6EE877AFCEEE77AC0ED017A136BEC
:10569800C3F3066307EE903AF8EE677A77EE867AF8
:1056A80086EEA77ABCEEC77A80ED027A10BD07EEC7
:1056B80010EAB8EE477A9FED146AC6EE076A0D4BFA
:1056C8001B6BC3F3080307EE103AB8EE477A9FED59
:1056D8000B6A67EE867A77EE277AB7EE007A77EE6E
:1056E800877A66EEA76AB1E70023036043608360A8
:1056F800DCE700BF004402580024744C0000003965
:105708000090D0030024744A0024744B00B58BB079
:10571800B0F5807F20D0B0F5007F71D0B0F5806FF4
:1057280000F0C880B0F5006F00F02181B0F5805F0F
:1057380000F08281B0F5002F00F0DB81B0F5803FEA
:1057480000F01F82B0F5804F00F03982B0F5004FAD
:1057580000F084820020B2E2954B1B6D03F0070332
:10576800042B00F2A382DFE803F005101B032600D8
:105778009048A4E28E4B186810F0007000F09F82E9
:1057880007A8FFF7C7FE089899E2894B186810F038
:10579800006000F0948204A8FFF7C4FC04988EE22D
:1057A800834B186810F0005000F0898201A8FFF7B9
:1057B800B5FD019883E27E4AD36C03F0405312682A
:1057C80012F0040F07D033B9794B1B68C3F3C10338
:1057D8007948D84073E2764A126812F4807F03D081
:1057E800B3F1805F00F06482714A126812F4003FDE
:1057F80000F06082B3F1005F00F05E8200205EE29C
:105808006B4B1B6D03F4E073802B33D015D9C02B81
:1058180000F05482B3F5807F1FD1654AD36C03F042
:105828004053126812F0040F2FD073BB604B1B68F3
:10583800C3F3C1036048D84041E283B1402B0AD189
:105848005B4B186810F0006000F0398204A8FFF77D
:1058580069FC049833E2002031E200202FE2544B27
:10586800186810F0007000F02A8207A8FFF752FEAF
:10587800089824E24E4B186810F0005000F01F8280
:1058880001A8FFF74BFD019819E2494A126812F482
:10589800807F03D0B3F1805F00F01482444A12681D
:1058A80012F4003F00F01082B3F1005F00F00E82A6
:1058B800002004E23E4B9B6D03F46003B3F5800FB8
:1058C80035D016D9B3F5C00F00F00282B3F5000F3A
:1058D80020D1374AD36C03F04053126812F0040FFA
:1058E80030D07BBB324B1B68C3F3C1033248D8406E
:1058F800E5E18BB1B3F5001F0AD12D4B186810F004
:10590800006000F0DC8104A8FFF70CFC0498D6E1E5
:105918000020D4E10020D2E1254B186810F0007077
:1059280000F0CD8107A8FFF7F5FD0898C7E1204BE7
:10593800186810F0005000F0C28101A8FFF7EEFCD3
:105948000198BCE11A4A126812F4807F03D0B3F1BF
:10595800805F00F0BF81164A126812F4003F00F021
:10596800BB81B3F1005F00F0B9810020A7E1104BC3
:105978009B6D03F0E063B3F1007F3DD01ED9B3F116
:10598800407F00F0AD81B3F1806F28D1084AD36C15
:1059980003F04053126812F0040F38D0002B36D1B0
:1059A800034B1B68C3F3C1030348D84087E100BF1A
:1059B800004402580080BB000090D0038BB1B3F1C3
:1059C800807F0AD1994B186810F0006000F0778149
:1059D80004A8FFF7A7FB049871E100206FE10020FD
:1059E8006DE1924B186810F0007000F0688107A80C
:1059F800FFF790FD089862E18C4B186810F0005092
:105A080000F05D8101A8FFF789FC019857E1874AFA
:105A1800126812F4807F03D0B3F1805F00F06281D6
:105A2800824A126812F4003F00F05E81B3F1005F11
:105A380000F05C81002042E17C4B1B6D03F4E043E5
:105A4800B3F5005F35D016D9B3F5405F00F050814B
:105A5800B3F5804F20D1754AD36C03F040531268D8
:105A680012F0040F30D07BBB704B1B68C3F3C1032B
:105A78006F48D84023E18BB1B3F5805F0AD16B4BF7
:105A8800186810F0006000F01A8104A8FFF74AFBBC
:105A9800049814E1002012E1002010E1634B18681B
:105AA80010F0007000F00B8107A8FFF733FD08988D
:105AB80005E15E4B186810F0005000F0008101A865
:105AC800FFF72CFC0198FAE0584A126812F4807F1C
